{
	"data": {
		"bytecode": {
			"linkReferences": {},
			"object": "60c06040526005608081905264173539b7b760d91b60a09081526200002891600991906200062e565b5066470de4df820000600a9081556103e8600b55610bb8600c55600d55600e80546001600160a81b0319167439db30eacd019fe0c1b1f87b780f6ee48325396f001790553480156200007957600080fd5b5060405162002824380380620028248339810160408190526200009c9162000798565b825183908390620000b59060009060208501906200062e565b508051620000cb9060019060208401906200062e565b505050620000e8620000e26200011a60201b60201c565b6200011e565b620000f38162000170565b600e54620001119061010090046001600160a01b03166001620001e9565b50505062000954565b3390565b600680546001600160a01b038381166001600160a01b0319831681179093556040519116919082907f8be0079c531659141344cd1fd0a4f28419497f9722a3daafe3b4186f6b6457e090600090a35050565b6006546001600160a01b03163314620001d05760405162461bcd60e51b815260206004820181905260248201527f4f776e61626c653a2063616c6c6572206973206e6f7420746865206f776e657260448201526064015b60405180910390fd5b8051620001e59060089060208401906200062e565b5050565b323314620002255760405162461bcd60e51b81526020600482015260086024820152674f6e6c7920454f4160c01b6044820152606401620001c7565b600e5460ff16156200023657600080fd5b600081116200024457600080fd5b600b54816200025f6007620002d560201b6200105a1760201c565b6200026b91906200087f565b11156200027757600080fd5b60015b818111620002d057620002996007620002d960201b6200105e1760201c565b620002bb83620002b56007620002d560201b6200105a1760201c565b620002e2565b80620002c7816200090a565b9150506200027a565b505050565b5490565b80546001019055565b620001e58282604051806020016040528060008152506200030460201b60201c565b62000310838362000377565b6200031f6000848484620004bf565b620002d05760405162461bcd60e51b815260206004820152603260248201526000805160206200280483398151915260448201527131b2b4bb32b91034b6b83632b6b2b73a32b960711b6064820152608401620001c7565b6001600160a01b038216620003cf5760405162461bcd60e51b815260206004820181905260248201527f4552433732313a206d696e7420746f20746865207a65726f20616464726573736044820152606401620001c7565b6000818152600260205260409020546001600160a01b031615620004365760405162461bcd60e51b815260206004820152601c60248201527f4552433732313a20746f6b656e20616c7265616479206d696e746564000000006044820152606401620001c7565b6001600160a01b0382166000908152600360205260408120805460019290620004619084906200087f565b909155505060008181526002602052604080822080546001600160a01b0319166001600160a01b03861690811790915590518392907fddf252ad1be2c89b69c2b068fc378daa952ba7f163c4a11628f55a4df523b3ef908290a45050565b6000620004e0846001600160a01b03166200062860201b620010671760201c565b156200061c57604051630a85bd0160e11b81526001600160a01b0385169063150b7a02906200051a90339089908890889060040162000829565b602060405180830381600087803b1580156200053557600080fd5b505af192505050801562000568575060408051601f3d908101601f19168201909252620005659181019062000765565b60015b62000601573d80801562000599576040519150601f19603f3d011682016040523d82523d6000602084013e6200059e565b606091505b508051620005f95760405162461bcd60e51b815260206004820152603260248201526000805160206200280483398151915260448201527131b2b4bb32b91034b6b83632b6b2b73a32b960711b6064820152608401620001c7565b805181602001fd5b6001600160e01b031916630a85bd0160e11b14905062000620565b5060015b949350505050565b3b151590565b8280546200063c90620008cd565b90600052602060002090601f016020900481019282620006605760008555620006ab565b82601f106200067b57805160ff1916838001178555620006ab565b82800160010185558215620006ab579182015b82811115620006ab5782518255916020019190600101906200068e565b50620006b9929150620006bd565b5090565b5b80821115620006b95760008155600101620006be565b600082601f830112620006e657600080fd5b81516001600160401b03808211156200070357620007036200093e565b604051601f8301601f19908116603f011681019082821181831017156200072e576200072e6200093e565b816040528381528660208588010111156200074857600080fd5b6200075b8460208301602089016200089a565b9695505050505050565b6000602082840312156200077857600080fd5b81516001600160e01b0319811681146200079157600080fd5b9392505050565b600080600060608486031215620007ae57600080fd5b83516001600160401b0380821115620007c657600080fd5b620007d487838801620006d4565b94506020860151915080821115620007eb57600080fd5b620007f987838801620006d4565b935060408601519150808211156200081057600080fd5b506200081f86828701620006d4565b9150509250925092565b600060018060a01b038087168352808616602084015250836040830152608060608301528251806080840152620008688160a08501602087016200089a565b601f01601f19169190910160a00195945050505050565b6000821982111562000895576200089562000928565b500190565b60005b83811015620008b75781810151838201526020016200089d565b83811115620008c7576000848401525b50505050565b600181811c90821680620008e257607f821691505b602082108114156200090457634e487b7160e01b600052602260045260246000fd5b50919050565b600060001982141562000921576200092162000928565b5060010190565b634e487b7160e01b600052601160045260246000fd5b634e487b7160e01b600052604160045260246000fd5b611ea080620009646000396000f3fe6080604052600436106101ee5760003560e01c80636352211e1161010d578063adf66d31116100a0578063d5abeb011161006f578063d5abeb0114610523578063da3ef23f14610539578063e985e9c514610559578063f2fde38b146105a2578063f9850b72146105c257600080fd5b8063adf66d31146104bb578063b88d4fde146104ce578063c6682862146104ee578063c87b56dd1461050357600080fd5b80637f00c7a6116100dc5780637f00c7a6146104485780638da5cb5b1461046857806395d89b4114610486578063a22cb4651461049b57600080fd5b80636352211e146103de5780636c0360eb146103fe57806370a0823114610413578063715018a61461043357600080fd5b806323b872dd1161018557806342842e0e1161015457806342842e0e1461036457806344a0d68a1461038457806355f804b3146103a45780635c975abb146103c457600080fd5b806323b872dd1461031357806324a6ab0c146103335780633ccfd60b1461034957806340c10f191461035157600080fd5b8063095ea7b3116101c1578063095ea7b3146102a457806313faede6146102c457806318160ddd146102e8578063239c70ae146102fd57600080fd5b806301ffc9a7146101f357806302329a291461022857806306fdde031461024a578063081812fc1461026c575b600080fd5b3480156101ff57600080fd5b5061021361020e366004611a50565b6105e7565b60405190151581526020015b60405180910390f35b34801561023457600080fd5b50610248610243366004611a35565b610639565b005b34801561025657600080fd5b5061025f61067f565b60405161021f9190611c19565b34801561027857600080fd5b5061028c610287366004611ad3565b610711565b6040516001600160a01b03909116815260200161021f565b3480156102b057600080fd5b506102486102bf366004611a0b565b6107a6565b3480156102d057600080fd5b506102da600a5481565b60405190815260200161021f565b3480156102f457600080fd5b506102da6108bc565b34801561030957600080fd5b506102da600d5481565b34801561031f57600080fd5b5061024861032e366004611929565b6108cc565b34801561033f57600080fd5b506102da600b5481565b6102486108fd565b61024861035f366004611a0b565b61094d565b34801561037057600080fd5b5061024861037f366004611929565b610a61565b34801561039057600080fd5b5061024861039f366004611ad3565b610a7c565b3480156103b057600080fd5b506102486103bf366004611a8a565b610aab565b3480156103d057600080fd5b50600e546102139060ff1681565b3480156103ea57600080fd5b5061028c6103f9366004611ad3565b610aec565b34801561040a57600080fd5b5061025f610b63565b34801561041f57600080fd5b506102da61042e3660046118db565b610bf1565b34801561043f57600080fd5b50610248610c78565b34801561045457600080fd5b50610248610463366004611ad3565b610cac565b34801561047457600080fd5b506006546001600160a01b031661028c565b34801561049257600080fd5b5061025f610cdb565b3480156104a757600080fd5b506102486104b63660046119e1565b610cea565b6102486104c9366004611a0b565b610daf565b3480156104da57600080fd5b506102486104e9366004611965565b610e5f565b3480156104fa57600080fd5b5061025f610e97565b34801561050f57600080fd5b5061025f61051e366004611ad3565b610ea4565b34801561052f57600080fd5b506102da600c5481565b34801561054557600080fd5b50610248610554366004611a8a565b610f82565b34801561056557600080fd5b506102136105743660046118f6565b6001600160a01b03918216600090815260056020908152604080832093909416825291909152205460ff1690565b3480156105ae57600080fd5b506102486105bd3660046118db565b610fbf565b3480156105ce57600080fd5b50600e5461028c9061010090046001600160a01b031681565b60006001600160e01b031982166380ac58cd60e01b148061061857506001600160e01b03198216635b5e139f60e01b145b8061063357506301ffc9a760e01b6001600160e01b03198316145b92915050565b6006546001600160a01b0316331461066c5760405162461bcd60e51b815260040161066390611c7e565b60405180910390fd5b600e805460ff1916911515919091179055565b60606000805461068e90611d92565b80601f01602080910402602001604051908101604052809291908181526020018280546106ba90611d92565b80156107075780601f106106dc57610100808354040283529160200191610707565b820191906000526020600020905b8154815290600101906020018083116106ea57829003601f168201915b5050505050905090565b6000818152600260205260408120546001600160a01b031661078a5760405162461bcd60e51b815260206004820152602c60248201527f4552433732313a20617070726f76656420717565727920666f72206e6f6e657860448201526b34b9ba32b73a103a37b5b2b760a11b6064820152608401610663565b506000908152600460205260409020546001600160a01b031690565b60006107b182610aec565b9050806001600160a01b0316836001600160a01b0316141561081f5760405162461bcd60e51b815260206004820152602160248201527f4552433732313a20617070726f76616c20746f2063757272656e74206f776e656044820152603960f91b6064820152608401610663565b336001600160a01b038216148061083b575061083b8133610574565b6108ad5760405162461bcd60e51b815260206004820152603860248201527f4552433732313a20617070726f76652063616c6c6572206973206e6f74206f7760448201527f6e6572206e6f7220617070726f76656420666f7220616c6c00000000000000006064820152608401610663565b6108b7838361106d565b505050565b60006108c760075490565b905090565b6108d633826110db565b6108f25760405162461bcd60e51b815260040161066390611cb3565b6108b78383836111d2565b6006546001600160a01b031633146109275760405162461bcd60e51b815260040161066390611c7e565b60405133904780156108fc02916000818181858888f1935050505061094b57600080fd5b565b3233146109875760405162461bcd60e51b81526020600482015260086024820152674f6e6c7920454f4160c01b6044820152606401610663565b600e5460ff161561099757600080fd5b600081116109a457600080fd5b600c54816109b160075490565b6109bb9190611d04565b11156109c657600080fd5b600d548111156109d557600080fd5b80600a546109e39190611d30565b341015610a255760405162461bcd60e51b815260206004820152601060248201526f2737ba1032b737bab3b41032ba3432b960811b6044820152606401610663565b60015b8181116108b757610a3d600780546001019055565b610a4f83610a4a60075490565b611372565b80610a5981611dcd565b915050610a28565b6108b783838360405180602001604052806000815250610e5f565b6006546001600160a01b03163314610aa65760405162461bcd60e51b815260040161066390611c7e565b600a55565b6006546001600160a01b03163314610ad55760405162461bcd60e51b815260040161066390611c7e565b8051610ae89060089060208401906117a0565b5050565b6000818152600260205260408120546001600160a01b0316806106335760405162461bcd60e51b815260206004820152602960248201527f4552433732313a206f776e657220717565727920666f72206e6f6e657869737460448201526832b73a103a37b5b2b760b91b6064820152608401610663565b60088054610b7090611d92565b80601f0160208091040260200160405190810160405280929190818152602001828054610b9c90611d92565b8015610be95780601f10610bbe57610100808354040283529160200191610be9565b820191906000526020600020905b815481529060010190602001808311610bcc57829003601f168201915b505050505081565b60006001600160a01b038216610c5c5760405162461bcd60e51b815260206004820152602a60248201527f4552433732313a2062616c616e636520717565727920666f7220746865207a65604482015269726f206164647265737360b01b6064820152608401610663565b506001600160a01b031660009081526003602052604090205490565b6006546001600160a01b03163314610ca25760405162461bcd60e51b815260040161066390611c7e565b61094b600061138c565b6006546001600160a01b03163314610cd65760405162461bcd60e51b815260040161066390611c7e565b600d55565b60606001805461068e90611d92565b6001600160a01b038216331415610d435760405162461bcd60e51b815260206004820152601960248201527f4552433732313a20617070726f766520746f2063616c6c6572000000000000006044820152606401610663565b3360008181526005602090815260408083206001600160a01b03871680855290835292819020805460ff191686151590811790915590519081529192917f17307eab39ab6107e8899845ad3d59bd9653f200f220920489ca2b5937696c31910160405180910390a35050565b323314610de95760405162461bcd60e51b81526020600482015260086024820152674f6e6c7920454f4160c01b6044820152606401610663565b600e5460ff1615610df957600080fd5b60008111610e0657600080fd5b600b5481610e1360075490565b610e1d9190611d04565b1115610e2857600080fd5b60015b8181116108b757610e40600780546001019055565b610e4d83610a4a60075490565b80610e5781611dcd565b915050610e2b565b610e6933836110db565b610e855760405162461bcd60e51b815260040161066390611cb3565b610e91848484846113de565b50505050565b60098054610b7090611d92565b6000818152600260205260409020546060906001600160a01b0316610f235760405162461bcd60e51b815260206004820152602f60248201527f4552433732314d657461646174613a2055524920717565727920666f72206e6f60448201526e3732bc34b9ba32b73a103a37b5b2b760891b6064820152608401610663565b6000610f2d611411565b90506000815111610f4d5760405180602001604052806000815250610f7b565b80610f5784611420565b6009604051602001610f6b93929190611b18565b6040516020818303038152906040525b9392505050565b6006546001600160a01b03163314610fac5760405162461bcd60e51b815260040161066390611c7e565b8051610ae89060099060208401906117a0565b6006546001600160a01b03163314610fe95760405162461bcd60e51b815260040161066390611c7e565b6001600160a01b03811661104e5760405162461bcd60e51b815260206004820152602660248201527f4f776e61626c653a206e6577206f776e657220697320746865207a65726f206160448201526564647265737360d01b6064820152608401610663565b6110578161138c565b50565b5490565b80546001019055565b3b151590565b600081815260046020526040902080546001600160a01b0319166001600160a01b03841690811790915581906110a282610aec565b6001600160a01b03167f8c5be1e5ebec7d5bd14f71427d1e84f3dd0314c0f7b2291e5b200ac8c7c3b92560405160405180910390a45050565b6000818152600260205260408120546001600160a01b03166111545760405162461bcd60e51b815260206004820152602c60248201527f4552433732313a206f70657261746f7220717565727920666f72206e6f6e657860448201526b34b9ba32b73a103a37b5b2b760a11b6064820152608401610663565b600061115f83610aec565b9050806001600160a01b0316846001600160a01b0316148061119a5750836001600160a01b031661118f84610711565b6001600160a01b0316145b806111ca57506001600160a01b0380821660009081526005602090815260408083209388168352929052205460ff165b949350505050565b826001600160a01b03166111e582610aec565b6001600160a01b03161461124d5760405162461bcd60e51b815260206004820152602960248201527f4552433732313a207472616e73666572206f6620746f6b656e2074686174206960448201526839903737ba1037bbb760b91b6064820152608401610663565b6001600160a01b0382166112af5760405162461bcd60e51b8152602060048201526024808201527f4552433732313a207472616e7366657220746f20746865207a65726f206164646044820152637265737360e01b6064820152608401610663565b6112ba60008261106d565b6001600160a01b03831660009081526003602052604081208054600192906112e3908490611d4f565b90915550506001600160a01b0382166000908152600360205260408120805460019290611311908490611d04565b909155505060008181526002602052604080822080546001600160a01b0319166001600160a01b0386811691821790925591518493918716917fddf252ad1be2c89b69c2b068fc378daa952ba7f163c4a11628f55a4df523b3ef91a4505050565b610ae882826040518060200160405280600081525061151e565b600680546001600160a01b038381166001600160a01b0319831681179093556040519116919082907f8be0079c531659141344cd1fd0a4f28419497f9722a3daafe3b4186f6b6457e090600090a35050565b6113e98484846111d2565b6113f584848484611551565b610e915760405162461bcd60e51b815260040161066390611c2c565b60606008805461068e90611d92565b6060816114445750506040805180820190915260018152600360fc1b602082015290565b8160005b811561146e578061145881611dcd565b91506114679050600a83611d1c565b9150611448565b60008167ffffffffffffffff81111561148957611489611e3e565b6040519080825280601f01601f1916602001820160405280156114b3576020820181803683370190505b5090505b84156111ca576114c8600183611d4f565b91506114d5600a86611de8565b6114e0906030611d04565b60f81b8183815181106114f5576114f5611e28565b60200101906001600160f81b031916908160001a905350611517600a86611d1c565b94506114b7565b611528838361165e565b6115356000848484611551565b6108b75760405162461bcd60e51b815260040161066390611c2c565b60006001600160a01b0384163b1561165357604051630a85bd0160e11b81526001600160a01b0385169063150b7a0290611595903390899088908890600401611bdc565b602060405180830381600087803b1580156115af57600080fd5b505af19250505080156115df575060408051601f3d908101601f191682019092526115dc91810190611a6d565b60015b611639573d80801561160d576040519150601f19603f3d011682016040523d82523d6000602084013e611612565b606091505b5080516116315760405162461bcd60e51b815260040161066390611c2c565b805181602001fd5b6001600160e01b031916630a85bd0160e11b1490506111ca565b506001949350505050565b6001600160a01b0382166116b45760405162461bcd60e51b815260206004820181905260248201527f4552433732313a206d696e7420746f20746865207a65726f20616464726573736044820152606401610663565b6000818152600260205260409020546001600160a01b0316156117195760405162461bcd60e51b815260206004820152601c60248201527f4552433732313a20746f6b656e20616c7265616479206d696e746564000000006044820152606401610663565b6001600160a01b0382166000908152600360205260408120805460019290611742908490611d04565b909155505060008181526002602052604080822080546001600160a01b0319166001600160a01b03861690811790915590518392907fddf252ad1be2c89b69c2b068fc378daa952ba7f163c4a11628f55a4df523b3ef908290a45050565b8280546117ac90611d92565b90600052602060002090601f0160209004810192826117ce5760008555611814565b82601f106117e757805160ff1916838001178555611814565b82800160010185558215611814579182015b828111156118145782518255916020019190600101906117f9565b50611820929150611824565b5090565b5b808211156118205760008155600101611825565b600067ffffffffffffffff8084111561185457611854611e3e565b604051601f8501601f19908116603f0116810190828211818310171561187c5761187c611e3e565b8160405280935085815286868601111561189557600080fd5b858560208301376000602087830101525050509392505050565b80356001600160a01b03811681146118c657600080fd5b919050565b803580151581146118c657600080fd5b6000602082840312156118ed57600080fd5b610f7b826118af565b6000806040838503121561190957600080fd5b611912836118af565b9150611920602084016118af565b90509250929050565b60008060006060848603121561193e57600080fd5b611947846118af565b9250611955602085016118af565b9150604084013590509250925092565b6000806000806080858703121561197b57600080fd5b611984856118af565b9350611992602086016118af565b925060408501359150606085013567ffffffffffffffff8111156119b557600080fd5b8501601f810187136119c657600080fd5b6119d587823560208401611839565b91505092959194509250565b600080604083850312156119f457600080fd5b6119fd836118af565b9150611920602084016118cb565b60008060408385031215611a1e57600080fd5b611a27836118af565b946020939093013593505050565b600060208284031215611a4757600080fd5b610f7b826118cb565b600060208284031215611a6257600080fd5b8135610f7b81611e54565b600060208284031215611a7f57600080fd5b8151610f7b81611e54565b600060208284031215611a9c57600080fd5b813567ffffffffffffffff811115611ab357600080fd5b8201601f81018413611ac457600080fd5b6111ca84823560208401611839565b600060208284031215611ae557600080fd5b5035919050565b60008151808452611b04816020860160208601611d66565b601f01601f19169290920160200192915050565b600084516020611b2b8285838a01611d66565b855191840191611b3e8184848a01611d66565b8554920191600090600181811c9080831680611b5b57607f831692505b858310811415611b7957634e487b7160e01b85526022600452602485fd5b808015611b8d5760018114611b9e57611bcb565b60ff19851688528388019550611bcb565b60008b81526020902060005b85811015611bc35781548a820152908401908801611baa565b505083880195505b50939b9a5050505050505050505050565b6001600160a01b0385811682528416602082015260408101839052608060608201819052600090611c0f90830184611aec565b9695505050505050565b602081526000610f7b6020830184611aec565b60208082526032908201527f4552433732313a207472616e7366657220746f206e6f6e20455243373231526560408201527131b2b4bb32b91034b6b83632b6b2b73a32b960711b606082015260800190565b6020808252818101527f4f776e61626c653a2063616c6c6572206973206e6f7420746865206f776e6572604082015260600190565b60208082526031908201527f4552433732313a207472616e736665722063616c6c6572206973206e6f74206f6040820152701ddb995c881b9bdc88185c1c1c9bdd9959607a1b606082015260800190565b60008219821115611d1757611d17611dfc565b500190565b600082611d2b57611d2b611e12565b500490565b6000816000190483118215151615611d4a57611d4a611dfc565b500290565b600082821015611d6157611d61611dfc565b500390565b60005b83811015611d81578181015183820152602001611d69565b83811115610e915750506000910152565b600181811c90821680611da657607f821691505b60208210811415611dc757634e487b7160e01b600052602260045260246000fd5b50919050565b6000600019821415611de157611de1611dfc565b5060010190565b600082611df757611df7611e12565b500690565b634e487b7160e01b600052601160045260246000fd5b634e487b7160e01b600052601260045260246000fd5b634e487b7160e01b600052603260045260246000fd5b634e487b7160e01b600052604160045260246000fd5b6001600160e01b03198116811461105757600080fdfea264697066735822122079340262a8af99f27c43cb6d54215b617cead05a492c7e5d015f828d9598ffd064736f6c634300080700334552433732313a207472616e7366657220746f206e6f6e204552433732315265",
			"opcodes": "PUSH1 0xC0 PUSH1 0x40 MSTORE PUSH1 0x5 PUSH1 0x80 DUP2 SWAP1 MSTORE PUSH5 0x173539B7B7 PUSH1 0xD9 SHL PUSH1 0xA0 SWAP1 DUP2 MSTORE PUSH3 0x28 SWAP2 PUSH1 0x9 SWAP2 SWAP1 PUSH3 0x62E JUMP JUMPDEST POP PUSH7 0x470DE4DF820000 PUSH1 0xA SWAP1 DUP2 SSTORE PUSH2 0x3E8 PUSH1 0xB SSTORE PUSH2 0xBB8 PUSH1 0xC SSTORE PUSH1 0xD SSTORE PUSH1 0xE DUP1 SLOAD PUSH1 0x1 PUSH1 0x1 PUSH1 0xA8 SHL SUB NOT AND PUSH21 0x39DB30EACD019FE0C1B1F87B780F6EE48325396F00 OR SWAP1 SSTORE CALLVALUE DUP1 ISZERO PUSH3 0x79 JUMPI PUSH1 0x0 DUP1 REVERT JUMPDEST POP PUSH1 0x40 MLOAD PUSH3 0x2824 CODESIZE SUB DUP1 PUSH3 0x2824 DUP4 CODECOPY DUP2 ADD PUSH1 0x40 DUP2 SWAP1 MSTORE PUSH3 0x9C SWAP2 PUSH3 0x798 JUMP JUMPDEST DUP3 MLOAD DUP4 SWAP1 DUP4 SWAP1 PUSH3 0xB5 SWAP1 PUSH1 0x0 SWAP1 PUSH1 0x20 DUP6 ADD SWAP1 PUSH3 0x62E JUMP JUMPDEST POP DUP1 MLOAD PUSH3 0xCB SWAP1 PUSH1 0x1 SWAP1 PUSH1 0x20 DUP5 ADD SWAP1 PUSH3 0x62E JUMP JUMPDEST POP POP POP PUSH3 0xE8 PUSH3 0xE2 PUSH3 0x11A PUSH1 0x20 SHL PUSH1 0x20 SHR JUMP JUMPDEST PUSH3 0x11E JUMP JUMPDEST PUSH3 0xF3 DUP2 PUSH3 0x170 JUMP JUMPDEST PUSH1 0xE SLOAD PUSH3 0x111 SWAP1 PUSH2 0x100 SWAP1 DIV PUSH1 0x1 PUSH1 0x1 PUSH1 0xA0 SHL SUB AND PUSH1 0x1 PUSH3 0x1E9 JUMP JUMPDEST POP POP POP PUSH3 0x954 JUMP JUMPDEST CALLER SWAP1 JUMP JUMPDEST PUSH1 0x6 DUP1 SLOAD PUSH1 0x1 PUSH1 0x1 PUSH1 0xA0 SHL SUB DUP4 DUP2 AND PUSH1 0x1 PUSH1 0x1 PUSH1 0xA0 SHL SUB NOT DUP4 AND DUP2 OR SWAP1 SWAP4 SSTORE PUSH1 0x40 MLOAD SWAP2 AND SWAP2 SWAP1 DUP3 SWAP1 PUSH32 0x8BE0079C531659141344CD1FD0A4F28419497F9722A3DAAFE3B4186F6B6457E0 SWAP1 PUSH1 0x0 SWAP1 LOG3 POP POP JUMP JUMPDEST PUSH1 0x6 SLOAD PUSH1 0x1 PUSH1 0x1 PUSH1 0xA0 SHL SUB AND CALLER EQ PUSH3 0x1D0 JUMPI PUSH1 0x40 MLOAD PUSH3 0x461BCD PUSH1 0xE5 SHL DUP2 MSTORE PUSH1 0x20 PUSH1 0x4 DUP3 ADD DUP2 SWAP1 MSTORE PUSH1 0x24 DUP3 ADD MSTORE PUSH32 0x4F776E61626C653A2063616C6C6572206973206E6F7420746865206F776E6572 PUSH1 0x44 DUP3 ADD MSTORE PUSH1 0x64 ADD JUMPDEST PUSH1 0x40 MLOAD DUP1 SWAP2 SUB SWAP1 REVERT JUMPDEST DUP1 MLOAD PUSH3 0x1E5 SWAP1 PUSH1 0x8 SWAP1 PUSH1 0x20 DUP5 ADD SWAP1 PUSH3 0x62E JUMP JUMPDEST POP POP JUMP JUMPDEST ORIGIN CALLER EQ PUSH3 0x225 JUMPI PUSH1 0x40 MLOAD PUSH3 0x461BCD PUSH1 0xE5 SHL DUP2 MSTORE PUSH1 0x20 PUSH1 0x4 DUP3 ADD MSTORE PUSH1 0x8 PUSH1 0x24 DUP3 ADD MSTORE PUSH8 0x4F6E6C7920454F41 PUSH1 0xC0 SHL PUSH1 0x44 DUP3 ADD MSTORE PUSH1 0x64 ADD PUSH3 0x1C7 JUMP JUMPDEST PUSH1 0xE SLOAD PUSH1 0xFF AND ISZERO PUSH3 0x236 JUMPI PUSH1 0x0 DUP1 REVERT JUMPDEST PUSH1 0x0 DUP2 GT PUSH3 0x244 JUMPI PUSH1 0x0 DUP1 REVERT JUMPDEST PUSH1 0xB SLOAD DUP2 PUSH3 0x25F PUSH1 0x7 PUSH3 0x2D5 PUSH1 0x20 SHL PUSH3 0x105A OR PUSH1 0x20 SHR JUMP JUMPDEST PUSH3 0x26B SWAP2 SWAP1 PUSH3 0x87F JUMP JUMPDEST GT ISZERO PUSH3 0x277 JUMPI PUSH1 0x0 DUP1 REVERT JUMPDEST PUSH1 0x1 JUMPDEST DUP2 DUP2 GT PUSH3 0x2D0 JUMPI PUSH3 0x299 PUSH1 0x7 PUSH3 0x2D9 PUSH1 0x20 SHL PUSH3 0x105E OR PUSH1 0x20 SHR JUMP JUMPDEST PUSH3 0x2BB DUP4 PUSH3 0x2B5 PUSH1 0x7 PUSH3 0x2D5 PUSH1 0x20 SHL PUSH3 0x105A OR PUSH1 0x20 SHR JUMP JUMPDEST PUSH3 0x2E2 JUMP JUMPDEST DUP1 PUSH3 0x2C7 DUP2 PUSH3 0x90A JUMP JUMPDEST SWAP2 POP POP PUSH3 0x27A JUMP JUMPDEST POP POP POP JUMP JUMPDEST SLOAD SWAP1 JUMP JUMPDEST DUP1 SLOAD PUSH1 0x1 ADD SWAP1 SSTORE JUMP JUMPDEST PUSH3 0x1E5 DUP3 DUP3 PUSH1 0x40 MLOAD DUP1 PUSH1 0x20 ADD PUSH1 0x40 MSTORE DUP1 PUSH1 0x0 DUP2 MSTORE POP PUSH3 0x304 PUSH1 0x20 SHL PUSH1 0x20 SHR JUMP JUMPDEST PUSH3 0x310 DUP4 DUP4 PUSH3 0x377 JUMP JUMPDEST PUSH3 0x31F PUSH1 0x0 DUP5 DUP5 DUP5 PUSH3 0x4BF JUMP JUMPDEST PUSH3 0x2D0 JUMPI PUSH1 0x40 MLOAD PUSH3 0x461BCD PUSH1 0xE5 SHL DUP2 MSTORE PUSH1 0x20 PUSH1 0x4 DUP3 ADD MSTORE PUSH1 0x32 PUSH1 0x24 DUP3 ADD MSTORE PUSH1 0x0 DUP1 MLOAD PUSH1 0x20 PUSH3 0x2804 DUP4 CODECOPY DUP2 MLOAD SWAP2 MSTORE PUSH1 0x44 DUP3 ADD MSTORE PUSH18 0x31B2B4BB32B91034B6B83632B6B2B73A32B9 PUSH1 0x71 SHL PUSH1 0x64 DUP3 ADD MSTORE PUSH1 0x84 ADD PUSH3 0x1C7 JUMP JUMPDEST PUSH1 0x1 PUSH1 0x1 PUSH1 0xA0 SHL SUB DUP3 AND PUSH3 0x3CF JUMPI PUSH1 0x40 MLOAD PUSH3 0x461BCD PUSH1 0xE5 SHL DUP2 MSTORE PUSH1 0x20 PUSH1 0x4 DUP3 ADD DUP2 SWAP1 MSTORE PUSH1 0x24 DUP3 ADD MSTORE PUSH32 0x4552433732313A206D696E7420746F20746865207A65726F2061646472657373 PUSH1 0x44 DUP3 ADD MSTORE PUSH1 0x64 ADD PUSH3 0x1C7 JUMP JUMPDEST PUSH1 0x0 DUP2 DUP2 MSTORE PUSH1 0x2 PUSH1 0x20 MSTORE PUSH1 0x40 SWAP1 KECCAK256 SLOAD PUSH1 0x1 PUSH1 0x1 PUSH1 0xA0 SHL SUB AND ISZERO PUSH3 0x436 JUMPI PUSH1 0x40 MLOAD PUSH3 0x461BCD PUSH1 0xE5 SHL DUP2 MSTORE PUSH1 0x20 PUSH1 0x4 DUP3 ADD MSTORE PUSH1 0x1C PUSH1 0x24 DUP3 ADD MSTORE PUSH32 0x4552433732313A20746F6B656E20616C7265616479206D696E74656400000000 PUSH1 0x44 DUP3 ADD MSTORE PUSH1 0x64 ADD PUSH3 0x1C7 JUMP JUMPDEST PUSH1 0x1 PUSH1 0x1 PUSH1 0xA0 SHL SUB DUP3 AND PUSH1 0x0 SWAP1 DUP2 MSTORE PUSH1 0x3 PUSH1 0x20 MSTORE PUSH1 0x40 DUP2 KECCAK256 DUP1 SLOAD PUSH1 0x1 SWAP3 SWAP1 PUSH3 0x461 SWAP1 DUP5 SWAP1 PUSH3 0x87F JUMP JUMPDEST SWAP1 SWAP2 SSTORE POP POP PUSH1 0x0 DUP2 DUP2 MSTORE PUSH1 0x2 PUSH1 0x20 MSTORE PUSH1 0x40 DUP1 DUP3 KECCAK256 DUP1 SLOAD PUSH1 0x1 PUSH1 0x1 PUSH1 0xA0 SHL SUB NOT AND PUSH1 0x1 PUSH1 0x1 PUSH1 0xA0 SHL SUB DUP7 AND SWAP1 DUP2 OR SWAP1 SWAP2 SSTORE SWAP1 MLOAD DUP4 SWAP3 SWAP1 PUSH32 0xDDF252AD1BE2C89B69C2B068FC378DAA952BA7F163C4A11628F55A4DF523B3EF SWAP1 DUP3 SWAP1 LOG4 POP POP JUMP JUMPDEST PUSH1 0x0 PUSH3 0x4E0 DUP5 PUSH1 0x1 PUSH1 0x1 PUSH1 0xA0 SHL SUB AND PUSH3 0x628 PUSH1 0x20 SHL PUSH3 0x1067 OR PUSH1 0x20 SHR JUMP JUMPDEST ISZERO PUSH3 0x61C JUMPI PUSH1 0x40 MLOAD PUSH4 0xA85BD01 PUSH1 0xE1 SHL DUP2 MSTORE PUSH1 0x1 PUSH1 0x1 PUSH1 0xA0 SHL SUB DUP6 AND SWAP1 PUSH4 0x150B7A02 SWAP1 PUSH3 0x51A SWAP1 CALLER SWAP1 DUP10 SWAP1 DUP9 SWAP1 DUP9 SWAP1 PUSH1 0x4 ADD PUSH3 0x829 JUMP JUMPDEST PUSH1 0x20 PUSH1 0x40 MLOAD DUP1 DUP4 SUB DUP2 PUSH1 0x0 DUP8 DUP1 EXTCODESIZE ISZERO DUP1 ISZERO PUSH3 0x535 JUMPI PUSH1 0x0 DUP1 REVERT JUMPDEST POP GAS CALL SWAP3 POP POP POP DUP1 ISZERO PUSH3 0x568 JUMPI POP PUSH1 0x40 DUP1 MLOAD PUSH1 0x1F RETURNDATASIZE SWAP1 DUP2 ADD PUSH1 0x1F NOT AND DUP3 ADD SWAP1 SWAP3 MSTORE PUSH3 0x565 SWAP2 DUP2 ADD SWAP1 PUSH3 0x765 JUMP JUMPDEST PUSH1 0x1 JUMPDEST PUSH3 0x601 JUMPI RETURNDATASIZE DUP1 DUP1 ISZERO PUSH3 0x599 JUMPI PUSH1 0x40 MLOAD SWAP2 POP PUSH1 0x1F NOT PUSH1 0x3F RETURNDATASIZE ADD AND DUP3 ADD PUSH1 0x40 MSTORE RETURNDATASIZE DUP3 MSTORE RETURNDATASIZE PUSH1 0x0 PUSH1 0x20 DUP5 ADD RETURNDATACOPY PUSH3 0x59E JUMP JUMPDEST PUSH1 0x60 SWAP2 POP JUMPDEST POP DUP1 MLOAD PUSH3 0x5F9 JUMPI PUSH1 0x40 MLOAD PUSH3 0x461BCD PUSH1 0xE5 SHL DUP2 MSTORE PUSH1 0x20 PUSH1 0x4 DUP3 ADD MSTORE PUSH1 0x32 PUSH1 0x24 DUP3 ADD MSTORE PUSH1 0x0 DUP1 MLOAD PUSH1 0x20 PUSH3 0x2804 DUP4 CODECOPY DUP2 MLOAD SWAP2 MSTORE PUSH1 0x44 DUP3 ADD MSTORE PUSH18 0x31B2B4BB32B91034B6B83632B6B2B73A32B9 PUSH1 0x71 SHL PUSH1 0x64 DUP3 ADD MSTORE PUSH1 0x84 ADD PUSH3 0x1C7 JUMP JUMPDEST DUP1 MLOAD DUP2 PUSH1 0x20 ADD REVERT JUMPDEST PUSH1 0x1 PUSH1 0x1 PUSH1 0xE0 SHL SUB NOT AND PUSH4 0xA85BD01 PUSH1 0xE1 SHL EQ SWAP1 POP PUSH3 0x620 JUMP JUMPDEST POP PUSH1 0x1 JUMPDEST SWAP5 SWAP4 POP POP POP POP JUMP JUMPDEST EXTCODESIZE ISZERO ISZERO SWAP1 JUMP JUMPDEST DUP3 DUP1 SLOAD PUSH3 0x63C SWAP1 PUSH3 0x8CD JUMP JUMPDEST SWAP1 PUSH1 0x0 MSTORE PUSH1 0x20 PUSH1 0x0 KECCAK256 SWAP1 PUSH1 0x1F ADD PUSH1 0x20 SWAP1 DIV DUP2 ADD SWAP3 DUP3 PUSH3 0x660 JUMPI PUSH1 0x0 DUP6 SSTORE PUSH3 0x6AB JUMP JUMPDEST DUP3 PUSH1 0x1F LT PUSH3 0x67B JUMPI DUP1 MLOAD PUSH1 0xFF NOT AND DUP4 DUP1 ADD OR DUP6 SSTORE PUSH3 0x6AB JUMP JUMPDEST DUP3 DUP1 ADD PUSH1 0x1 ADD DUP6 SSTORE DUP3 ISZERO PUSH3 0x6AB JUMPI SWAP2 DUP3 ADD JUMPDEST DUP3 DUP2 GT ISZERO PUSH3 0x6AB JUMPI DUP3 MLOAD DUP3 SSTORE SWAP2 PUSH1 0x20 ADD SWAP2 SWAP1 PUSH1 0x1 ADD SWAP1 PUSH3 0x68E JUMP JUMPDEST POP PUSH3 0x6B9 SWAP3 SWAP2 POP PUSH3 0x6BD JUMP JUMPDEST POP SWAP1 JUMP JUMPDEST JUMPDEST DUP1 DUP3 GT ISZERO PUSH3 0x6B9 JUMPI PUSH1 0x0 DUP2 SSTORE PUSH1 0x1 ADD PUSH3 0x6BE JUMP JUMPDEST PUSH1 0x0 DUP3 PUSH1 0x1F DUP4 ADD SLT PUSH3 0x6E6 JUMPI PUSH1 0x0 DUP1 REVERT JUMPDEST DUP2 MLOAD PUSH1 0x1 PUSH1 0x1 PUSH1 0x40 SHL SUB DUP1 DUP3 GT ISZERO PUSH3 0x703 JUMPI PUSH3 0x703 PUSH3 0x93E JUMP JUMPDEST PUSH1 0x40 MLOAD PUSH1 0x1F DUP4 ADD PUSH1 0x1F NOT SWAP1 DUP2 AND PUSH1 0x3F ADD AND DUP2 ADD SWAP1 DUP3 DUP3 GT DUP2 DUP4 LT OR ISZERO PUSH3 0x72E JUMPI PUSH3 0x72E PUSH3 0x93E JUMP JUMPDEST DUP2 PUSH1 0x40 MSTORE DUP4 DUP2 MSTORE DUP7 PUSH1 0x20 DUP6 DUP9 ADD ADD GT ISZERO PUSH3 0x748 JUMPI PUSH1 0x0 DUP1 REVERT JUMPDEST PUSH3 0x75B DUP5 PUSH1 0x20 DUP4 ADD PUSH1 0x20 DUP10 ADD PUSH3 0x89A JUMP JUMPDEST SWAP7 SWAP6 POP POP POP POP POP POP JUMP JUMPDEST PUSH1 0x0 PUSH1 0x20 DUP3 DUP5 SUB SLT ISZERO PUSH3 0x778 JUMPI PUSH1 0x0 DUP1 REVERT JUMPDEST DUP2 MLOAD PUSH1 0x1 PUSH1 0x1 PUSH1 0xE0 SHL SUB NOT DUP2 AND DUP2 EQ PUSH3 0x791 JUMPI PUSH1 0x0 DUP1 REVERT JUMPDEST SWAP4 SWAP3 POP POP POP JUMP JUMPDEST PUSH1 0x0 DUP1 PUSH1 0x0 PUSH1 0x60 DUP5 DUP7 SUB SLT ISZERO PUSH3 0x7AE JUMPI PUSH1 0x0 DUP1 REVERT JUMPDEST DUP4 MLOAD PUSH1 0x1 PUSH1 0x1 PUSH1 0x40 SHL SUB DUP1 DUP3 GT ISZERO PUSH3 0x7C6 JUMPI PUSH1 0x0 DUP1 REVERT JUMPDEST PUSH3 0x7D4 DUP8 DUP4 DUP9 ADD PUSH3 0x6D4 JUMP JUMPDEST SWAP5 POP PUSH1 0x20 DUP7 ADD MLOAD SWAP2 POP DUP1 DUP3 GT ISZERO PUSH3 0x7EB JUMPI PUSH1 0x0 DUP1 REVERT JUMPDEST PUSH3 0x7F9 DUP8 DUP4 DUP9 ADD PUSH3 0x6D4 JUMP JUMPDEST SWAP4 POP PUSH1 0x40 DUP7 ADD MLOAD SWAP2 POP DUP1 DUP3 GT ISZERO PUSH3 0x810 JUMPI PUSH1 0x0 DUP1 REVERT JUMPDEST POP PUSH3 0x81F DUP7 DUP3 DUP8 ADD PUSH3 0x6D4 JUMP JUMPDEST SWAP2 POP POP SWAP3 POP SWAP3 POP SWAP3 JUMP JUMPDEST PUSH1 0x0 PUSH1 0x1 DUP1 PUSH1 0xA0 SHL SUB DUP1 DUP8 AND DUP4 MSTORE DUP1 DUP7 AND PUSH1 0x20 DUP5 ADD MSTORE POP DUP4 PUSH1 0x40 DUP4 ADD MSTORE PUSH1 0x80 PUSH1 0x60 DUP4 ADD MSTORE DUP3 MLOAD DUP1 PUSH1 0x80 DUP5 ADD MSTORE PUSH3 0x868 DUP2 PUSH1 0xA0 DUP6 ADD PUSH1 0x20 DUP8 ADD PUSH3 0x89A JUMP JUMPDEST PUSH1 0x1F ADD PUSH1 0x1F NOT AND SWAP2 SWAP1 SWAP2 ADD PUSH1 0xA0 ADD SWAP6 SWAP5 POP POP POP POP POP JUMP JUMPDEST PUSH1 0x0 DUP3 NOT DUP3 GT ISZERO PUSH3 0x895 JUMPI PUSH3 0x895 PUSH3 0x928 JUMP JUMPDEST POP ADD SWAP1 JUMP JUMPDEST PUSH1 0x0 JUMPDEST DUP4 DUP2 LT ISZERO PUSH3 0x8B7 JUMPI DUP2 DUP2 ADD MLOAD DUP4 DUP3 ADD MSTORE PUSH1 0x20 ADD PUSH3 0x89D JUMP JUMPDEST DUP4 DUP2 GT ISZERO PUSH3 0x8C7 JUMPI PUSH1 0x0 DUP5 DUP5 ADD MSTORE JUMPDEST POP POP POP POP JUMP JUMPDEST PUSH1 0x1 DUP2 DUP2 SHR SWAP1 DUP3 AND DUP1 PUSH3 0x8E2 JUMPI PUSH1 0x7F DUP3 AND SWAP2 POP JUMPDEST PUSH1 0x20 DUP3 LT DUP2 EQ ISZERO PUSH3 0x904 JUMPI PUSH4 0x4E487B71 PUSH1 0xE0 SHL PUSH1 0x0 MSTORE PUSH1 0x22 PUSH1 0x4 MSTORE PUSH1 0x24 PUSH1 0x0 REVERT JUMPDEST POP SWAP2 SWAP1 POP JUMP JUMPDEST PUSH1 0x0 PUSH1 0x0 NOT DUP3 EQ ISZERO PUSH3 0x921 JUMPI PUSH3 0x921 PUSH3 0x928 JUMP JUMPDEST POP PUSH1 0x1 ADD SWAP1 JUMP JUMPDEST PUSH4 0x4E487B71 PUSH1 0xE0 SHL PUSH1 0x0 MSTORE PUSH1 0x11 PUSH1 0x4 MSTORE PUSH1 0x24 PUSH1 0x0 REVERT JUMPDEST PUSH4 0x4E487B71 PUSH1 0xE0 SHL PUSH1 0x0 MSTORE PUSH1 0x41 PUSH1 0x4 MSTORE PUSH1 0x24 PUSH1 0x0 REVERT JUMPDEST PUSH2 0x1EA0 DUP1 PUSH3 0x964 PUSH1 0x0 CODECOPY PUSH1 0x0 RETURN INVALID PUSH1 0x80 PUSH1 0x40 MSTORE PUSH1 0x4 CALLDATASIZE LT PUSH2 0x1EE JUMPI PUSH1 0x0 CALLDATALOAD PUSH1 0xE0 SHR DUP1 PUSH4 0x6352211E GT PUSH2 0x10D JUMPI DUP1 PUSH4 0xADF66D31 GT PUSH2 0xA0 JUMPI DUP1 PUSH4 0xD5ABEB01 GT PUSH2 0x6F JUMPI DUP1 PUSH4 0xD5ABEB01 EQ PUSH2 0x523 JUMPI DUP1 PUSH4 0xDA3EF23F EQ PUSH2 0x539 JUMPI DUP1 PUSH4 0xE985E9C5 EQ PUSH2 0x559 JUMPI DUP1 PUSH4 0xF2FDE38B EQ PUSH2 0x5A2 JUMPI DUP1 PUSH4 0xF9850B72 EQ PUSH2 0x5C2 JUMPI PUSH1 0x0 DUP1 REVERT JUMPDEST DUP1 PUSH4 0xADF66D31 EQ PUSH2 0x4BB JUMPI DUP1 PUSH4 0xB88D4FDE EQ PUSH2 0x4CE JUMPI DUP1 PUSH4 0xC6682862 EQ PUSH2 0x4EE JUMPI DUP1 PUSH4 0xC87B56DD EQ PUSH2 0x503 JUMPI PUSH1 0x0 DUP1 REVERT JUMPDEST DUP1 PUSH4 0x7F00C7A6 GT PUSH2 0xDC JUMPI DUP1 PUSH4 0x7F00C7A6 EQ PUSH2 0x448 JUMPI DUP1 PUSH4 0x8DA5CB5B EQ PUSH2 0x468 JUMPI DUP1 PUSH4 0x95D89B41 EQ PUSH2 0x486 JUMPI DUP1 PUSH4 0xA22CB465 EQ PUSH2 0x49B JUMPI PUSH1 0x0 DUP1 REVERT JUMPDEST DUP1 PUSH4 0x6352211E EQ PUSH2 0x3DE JUMPI DUP1 PUSH4 0x6C0360EB EQ PUSH2 0x3FE JUMPI DUP1 PUSH4 0x70A08231 EQ PUSH2 0x413 JUMPI DUP1 PUSH4 0x715018A6 EQ PUSH2 0x433 JUMPI PUSH1 0x0 DUP1 REVERT JUMPDEST DUP1 PUSH4 0x23B872DD GT PUSH2 0x185 JUMPI DUP1 PUSH4 0x42842E0E GT PUSH2 0x154 JUMPI DUP1 PUSH4 0x42842E0E EQ PUSH2 0x364 JUMPI DUP1 PUSH4 0x44A0D68A EQ PUSH2 0x384 JUMPI DUP1 PUSH4 0x55F804B3 EQ PUSH2 0x3A4 JUMPI DUP1 PUSH4 0x5C975ABB EQ PUSH2 0x3C4 JUMPI PUSH1 0x0 DUP1 REVERT JUMPDEST DUP1 PUSH4 0x23B872DD EQ PUSH2 0x313 JUMPI DUP1 PUSH4 0x24A6AB0C EQ PUSH2 0x333 JUMPI DUP1 PUSH4 0x3CCFD60B EQ PUSH2 0x349 JUMPI DUP1 PUSH4 0x40C10F19 EQ PUSH2 0x351 JUMPI PUSH1 0x0 DUP1 REVERT JUMPDEST DUP1 PUSH4 0x95EA7B3 GT PUSH2 0x1C1 JUMPI DUP1 PUSH4 0x95EA7B3 EQ PUSH2 0x2A4 JUMPI DUP1 PUSH4 0x13FAEDE6 EQ PUSH2 0x2C4 JUMPI DUP1 PUSH4 0x18160DDD EQ PUSH2 0x2E8 JUMPI DUP1 PUSH4 0x239C70AE EQ PUSH2 0x2FD JUMPI PUSH1 0x0 DUP1 REVERT JUMPDEST DUP1 PUSH4 0x1FFC9A7 EQ PUSH2 0x1F3 JUMPI DUP1 PUSH4 0x2329A29 EQ PUSH2 0x228 JUMPI DUP1 PUSH4 0x6FDDE03 EQ PUSH2 0x24A JUMPI DUP1 PUSH4 0x81812FC EQ PUSH2 0x26C JUMPI JUMPDEST PUSH1 0x0 DUP1 REVERT JUMPDEST CALLVALUE DUP1 ISZERO PUSH2 0x1FF JUMPI PUSH1 0x0 DUP1 REVERT JUMPDEST POP PUSH2 0x213 PUSH2 0x20E CALLDATASIZE PUSH1 0x4 PUSH2 0x1A50 JUMP JUMPDEST PUSH2 0x5E7 JUMP JUMPDEST PUSH1 0x40 MLOAD SWAP1 ISZERO ISZERO DUP2 MSTORE PUSH1 0x20 ADD JUMPDEST PUSH1 0x40 MLOAD DUP1 SWAP2 SUB SWAP1 RETURN JUMPDEST CALLVALUE DUP1 ISZERO PUSH2 0x234 JUMPI PUSH1 0x0 DUP1 REVERT JUMPDEST POP PUSH2 0x248 PUSH2 0x243 CALLDATASIZE PUSH1 0x4 PUSH2 0x1A35 JUMP JUMPDEST PUSH2 0x639 JUMP JUMPDEST STOP JUMPDEST CALLVALUE DUP1 ISZERO PUSH2 0x256 JUMPI PUSH1 0x0 DUP1 REVERT JUMPDEST POP PUSH2 0x25F PUSH2 0x67F JUMP JUMPDEST PUSH1 0x40 MLOAD PUSH2 0x21F SWAP2 SWAP1 PUSH2 0x1C19 JUMP JUMPDEST CALLVALUE DUP1 ISZERO PUSH2 0x278 JUMPI PUSH1 0x0 DUP1 REVERT JUMPDEST POP PUSH2 0x28C PUSH2 0x287 CALLDATASIZE PUSH1 0x4 PUSH2 0x1AD3 JUMP JUMPDEST PUSH2 0x711 JUMP JUMPDEST PUSH1 0x40 MLOAD PUSH1 0x1 PUSH1 0x1 PUSH1 0xA0 SHL SUB SWAP1 SWAP2 AND DUP2 MSTORE PUSH1 0x20 ADD PUSH2 0x21F JUMP JUMPDEST CALLVALUE DUP1 ISZERO PUSH2 0x2B0 JUMPI PUSH1 0x0 DUP1 REVERT JUMPDEST POP PUSH2 0x248 PUSH2 0x2BF CALLDATASIZE PUSH1 0x4 PUSH2 0x1A0B JUMP JUMPDEST PUSH2 0x7A6 JUMP JUMPDEST CALLVALUE DUP1 ISZERO PUSH2 0x2D0 JUMPI PUSH1 0x0 DUP1 REVERT JUMPDEST POP PUSH2 0x2DA PUSH1 0xA SLOAD DUP2 JUMP JUMPDEST PUSH1 0x40 MLOAD SWAP1 DUP2 MSTORE PUSH1 0x20 ADD PUSH2 0x21F JUMP JUMPDEST CALLVALUE DUP1 ISZERO PUSH2 0x2F4 JUMPI PUSH1 0x0 DUP1 REVERT JUMPDEST POP PUSH2 0x2DA PUSH2 0x8BC JUMP JUMPDEST CALLVALUE DUP1 ISZERO PUSH2 0x309 JUMPI PUSH1 0x0 DUP1 REVERT JUMPDEST POP PUSH2 0x2DA PUSH1 0xD SLOAD DUP2 JUMP JUMPDEST CALLVALUE DUP1 ISZERO PUSH2 0x31F JUMPI PUSH1 0x0 DUP1 REVERT JUMPDEST POP PUSH2 0x248 PUSH2 0x32E CALLDATASIZE PUSH1 0x4 PUSH2 0x1929 JUMP JUMPDEST PUSH2 0x8CC JUMP JUMPDEST CALLVALUE DUP1 ISZERO PUSH2 0x33F JUMPI PUSH1 0x0 DUP1 REVERT JUMPDEST POP PUSH2 0x2DA PUSH1 0xB SLOAD DUP2 JUMP JUMPDEST PUSH2 0x248 PUSH2 0x8FD JUMP JUMPDEST PUSH2 0x248 PUSH2 0x35F CALLDATASIZE PUSH1 0x4 PUSH2 0x1A0B JUMP JUMPDEST PUSH2 0x94D JUMP JUMPDEST CALLVALUE DUP1 ISZERO PUSH2 0x370 JUMPI PUSH1 0x0 DUP1 REVERT JUMPDEST POP PUSH2 0x248 PUSH2 0x37F CALLDATASIZE PUSH1 0x4 PUSH2 0x1929 JUMP JUMPDEST PUSH2 0xA61 JUMP JUMPDEST CALLVALUE DUP1 ISZERO PUSH2 0x390 JUMPI PUSH1 0x0 DUP1 REVERT JUMPDEST POP PUSH2 0x248 PUSH2 0x39F CALLDATASIZE PUSH1 0x4 PUSH2 0x1AD3 JUMP JUMPDEST PUSH2 0xA7C JUMP JUMPDEST CALLVALUE DUP1 ISZERO PUSH2 0x3B0 JUMPI PUSH1 0x0 DUP1 REVERT JUMPDEST POP PUSH2 0x248 PUSH2 0x3BF CALLDATASIZE PUSH1 0x4 PUSH2 0x1A8A JUMP JUMPDEST PUSH2 0xAAB JUMP JUMPDEST CALLVALUE DUP1 ISZERO PUSH2 0x3D0 JUMPI PUSH1 0x0 DUP1 REVERT JUMPDEST POP PUSH1 0xE SLOAD PUSH2 0x213 SWAP1 PUSH1 0xFF AND DUP2 JUMP JUMPDEST CALLVALUE DUP1 ISZERO PUSH2 0x3EA JUMPI PUSH1 0x0 DUP1 REVERT JUMPDEST POP PUSH2 0x28C PUSH2 0x3F9 CALLDATASIZE PUSH1 0x4 PUSH2 0x1AD3 JUMP JUMPDEST PUSH2 0xAEC JUMP JUMPDEST CALLVALUE DUP1 ISZERO PUSH2 0x40A JUMPI PUSH1 0x0 DUP1 REVERT JUMPDEST POP PUSH2 0x25F PUSH2 0xB63 JUMP JUMPDEST CALLVALUE DUP1 ISZERO PUSH2 0x41F JUMPI PUSH1 0x0 DUP1 REVERT JUMPDEST POP PUSH2 0x2DA PUSH2 0x42E CALLDATASIZE PUSH1 0x4 PUSH2 0x18DB JUMP JUMPDEST PUSH2 0xBF1 JUMP JUMPDEST CALLVALUE DUP1 ISZERO PUSH2 0x43F JUMPI PUSH1 0x0 DUP1 REVERT JUMPDEST POP PUSH2 0x248 PUSH2 0xC78 JUMP JUMPDEST CALLVALUE DUP1 ISZERO PUSH2 0x454 JUMPI PUSH1 0x0 DUP1 REVERT JUMPDEST POP PUSH2 0x248 PUSH2 0x463 CALLDATASIZE PUSH1 0x4 PUSH2 0x1AD3 JUMP JUMPDEST PUSH2 0xCAC JUMP JUMPDEST CALLVALUE DUP1 ISZERO PUSH2 0x474 JUMPI PUSH1 0x0 DUP1 REVERT JUMPDEST POP PUSH1 0x6 SLOAD PUSH1 0x1 PUSH1 0x1 PUSH1 0xA0 SHL SUB AND PUSH2 0x28C JUMP JUMPDEST CALLVALUE DUP1 ISZERO PUSH2 0x492 JUMPI PUSH1 0x0 DUP1 REVERT JUMPDEST POP PUSH2 0x25F PUSH2 0xCDB JUMP JUMPDEST CALLVALUE DUP1 ISZERO PUSH2 0x4A7 JUMPI PUSH1 0x0 DUP1 REVERT JUMPDEST POP PUSH2 0x248 PUSH2 0x4B6 CALLDATASIZE PUSH1 0x4 PUSH2 0x19E1 JUMP JUMPDEST PUSH2 0xCEA JUMP JUMPDEST PUSH2 0x248 PUSH2 0x4C9 CALLDATASIZE PUSH1 0x4 PUSH2 0x1A0B JUMP JUMPDEST PUSH2 0xDAF JUMP JUMPDEST CALLVALUE DUP1 ISZERO PUSH2 0x4DA JUMPI PUSH1 0x0 DUP1 REVERT JUMPDEST POP PUSH2 0x248 PUSH2 0x4E9 CALLDATASIZE PUSH1 0x4 PUSH2 0x1965 JUMP JUMPDEST PUSH2 0xE5F JUMP JUMPDEST CALLVALUE DUP1 ISZERO PUSH2 0x4FA JUMPI PUSH1 0x0 DUP1 REVERT JUMPDEST POP PUSH2 0x25F PUSH2 0xE97 JUMP JUMPDEST CALLVALUE DUP1 ISZERO PUSH2 0x50F JUMPI PUSH1 0x0 DUP1 REVERT JUMPDEST POP PUSH2 0x25F PUSH2 0x51E CALLDATASIZE PUSH1 0x4 PUSH2 0x1AD3 JUMP JUMPDEST PUSH2 0xEA4 JUMP JUMPDEST CALLVALUE DUP1 ISZERO PUSH2 0x52F JUMPI PUSH1 0x0 DUP1 REVERT JUMPDEST POP PUSH2 0x2DA PUSH1 0xC SLOAD DUP2 JUMP JUMPDEST CALLVALUE DUP1 ISZERO PUSH2 0x545 JUMPI PUSH1 0x0 DUP1 REVERT JUMPDEST POP PUSH2 0x248 PUSH2 0x554 CALLDATASIZE PUSH1 0x4 PUSH2 0x1A8A JUMP JUMPDEST PUSH2 0xF82 JUMP JUMPDEST CALLVALUE DUP1 ISZERO PUSH2 0x565 JUMPI PUSH1 0x0 DUP1 REVERT JUMPDEST POP PUSH2 0x213 PUSH2 0x574 CALLDATASIZE PUSH1 0x4 PUSH2 0x18F6 JUMP JUMPDEST PUSH1 0x1 PUSH1 0x1 PUSH1 0xA0 SHL SUB SWAP2 DUP3 AND PUSH1 0x0 SWAP1 DUP2 MSTORE PUSH1 0x5 PUSH1 0x20 SWAP1 DUP2 MSTORE PUSH1 0x40 DUP1 DUP4 KECCAK256 SWAP4 SWAP1 SWAP5 AND DUP3 MSTORE SWAP2 SWAP1 SWAP2 MSTORE KECCAK256 SLOAD PUSH1 0xFF AND SWAP1 JUMP JUMPDEST CALLVALUE DUP1 ISZERO PUSH2 0x5AE JUMPI PUSH1 0x0 DUP1 REVERT JUMPDEST POP PUSH2 0x248 PUSH2 0x5BD CALLDATASIZE PUSH1 0x4 PUSH2 0x18DB JUMP JUMPDEST PUSH2 0xFBF JUMP JUMPDEST CALLVALUE DUP1 ISZERO PUSH2 0x5CE JUMPI PUSH1 0x0 DUP1 REVERT JUMPDEST POP PUSH1 0xE SLOAD PUSH2 0x28C SWAP1 PUSH2 0x100 SWAP1 DIV PUSH1 0x1 PUSH1 0x1 PUSH1 0xA0 SHL SUB AND DUP2 JUMP JUMPDEST PUSH1 0x0 PUSH1 0x1 PUSH1 0x1 PUSH1 0xE0 SHL SUB NOT DUP3 AND PUSH4 0x80AC58CD PUSH1 0xE0 SHL EQ DUP1 PUSH2 0x618 JUMPI POP PUSH1 0x1 PUSH1 0x1 PUSH1 0xE0 SHL SUB NOT DUP3 AND PUSH4 0x5B5E139F PUSH1 0xE0 SHL EQ JUMPDEST DUP1 PUSH2 0x633 JUMPI POP PUSH4 0x1FFC9A7 PUSH1 0xE0 SHL PUSH1 0x1 PUSH1 0x1 PUSH1 0xE0 SHL SUB NOT DUP4 AND EQ JUMPDEST SWAP3 SWAP2 POP POP JUMP JUMPDEST PUSH1 0x6 SLOAD PUSH1 0x1 PUSH1 0x1 PUSH1 0xA0 SHL SUB AND CALLER EQ PUSH2 0x66C JUMPI PUSH1 0x40 MLOAD PUSH3 0x461BCD PUSH1 0xE5 SHL DUP2 MSTORE PUSH1 0x4 ADD PUSH2 0x663 SWAP1 PUSH2 0x1C7E JUMP JUMPDEST PUSH1 0x40 MLOAD DUP1 SWAP2 SUB SWAP1 REVERT JUMPDEST PUSH1 0xE DUP1 SLOAD PUSH1 0xFF NOT AND SWAP2 ISZERO ISZERO SWAP2 SWAP1 SWAP2 OR SWAP1 SSTORE JUMP JUMPDEST PUSH1 0x60 PUSH1 0x0 DUP1 SLOAD PUSH2 0x68E SWAP1 PUSH2 0x1D92 JUMP JUMPDEST DUP1 PUSH1 0x1F ADD PUSH1 0x20 DUP1 SWAP2 DIV MUL PUSH1 0x20 ADD PUSH1 0x40 MLOAD SWAP1 DUP2 ADD PUSH1 0x40 MSTORE DUP1 SWAP3 SWAP2 SWAP1 DUP2 DUP2 MSTORE PUSH1 0x20 ADD DUP3 DUP1 SLOAD PUSH2 0x6BA SWAP1 PUSH2 0x1D92 JUMP JUMPDEST DUP1 ISZERO PUSH2 0x707 JUMPI DUP1 PUSH1 0x1F LT PUSH2 0x6DC JUMPI PUSH2 0x100 DUP1 DUP4 SLOAD DIV MUL DUP4 MSTORE SWAP2 PUSH1 0x20 ADD SWAP2 PUSH2 0x707 JUMP JUMPDEST DUP3 ADD SWAP2 SWAP1 PUSH1 0x0 MSTORE PUSH1 0x20 PUSH1 0x0 KECCAK256 SWAP1 JUMPDEST DUP2 SLOAD DUP2 MSTORE SWAP1 PUSH1 0x1 ADD SWAP1 PUSH1 0x20 ADD DUP1 DUP4 GT PUSH2 0x6EA JUMPI DUP3 SWAP1 SUB PUSH1 0x1F AND DUP3 ADD SWAP2 JUMPDEST POP POP POP POP POP SWAP1 POP SWAP1 JUMP JUMPDEST PUSH1 0x0 DUP2 DUP2 MSTORE PUSH1 0x2 PUSH1 0x20 MSTORE PUSH1 0x40 DUP2 KECCAK256 SLOAD PUSH1 0x1 PUSH1 0x1 PUSH1 0xA0 SHL SUB AND PUSH2 0x78A JUMPI PUSH1 0x40 MLOAD PUSH3 0x461BCD PUSH1 0xE5 SHL DUP2 MSTORE PUSH1 0x20 PUSH1 0x4 DUP3 ADD MSTORE PUSH1 0x2C PUSH1 0x24 DUP3 ADD MSTORE PUSH32 0x4552433732313A20617070726F76656420717565727920666F72206E6F6E6578 PUSH1 0x44 DUP3 ADD MSTORE PUSH12 0x34B9BA32B73A103A37B5B2B7 PUSH1 0xA1 SHL PUSH1 0x64 DUP3 ADD MSTORE PUSH1 0x84 ADD PUSH2 0x663 JUMP JUMPDEST POP PUSH1 0x0 SWAP1 DUP2 MSTORE PUSH1 0x4 PUSH1 0x20 MSTORE PUSH1 0x40 SWAP1 KECCAK256 SLOAD PUSH1 0x1 PUSH1 0x1 PUSH1 0xA0 SHL SUB AND SWAP1 JUMP JUMPDEST PUSH1 0x0 PUSH2 0x7B1 DUP3 PUSH2 0xAEC JUMP JUMPDEST SWAP1 POP DUP1 PUSH1 0x1 PUSH1 0x1 PUSH1 0xA0 SHL SUB AND DUP4 PUSH1 0x1 PUSH1 0x1 PUSH1 0xA0 SHL SUB AND EQ ISZERO PUSH2 0x81F JUMPI PUSH1 0x40 MLOAD PUSH3 0x461BCD PUSH1 0xE5 SHL DUP2 MSTORE PUSH1 0x20 PUSH1 0x4 DUP3 ADD MSTORE PUSH1 0x21 PUSH1 0x24 DUP3 ADD MSTORE PUSH32 0x4552433732313A20617070726F76616C20746F2063757272656E74206F776E65 PUSH1 0x44 DUP3 ADD MSTORE PUSH1 0x39 PUSH1 0xF9 SHL PUSH1 0x64 DUP3 ADD MSTORE PUSH1 0x84 ADD PUSH2 0x663 JUMP JUMPDEST CALLER PUSH1 0x1 PUSH1 0x1 PUSH1 0xA0 SHL SUB DUP3 AND EQ DUP1 PUSH2 0x83B JUMPI POP PUSH2 0x83B DUP2 CALLER PUSH2 0x574 JUMP JUMPDEST PUSH2 0x8AD JUMPI PUSH1 0x40 MLOAD PUSH3 0x461BCD PUSH1 0xE5 SHL DUP2 MSTORE PUSH1 0x20 PUSH1 0x4 DUP3 ADD MSTORE PUSH1 0x38 PUSH1 0x24 DUP3 ADD MSTORE PUSH32 0x4552433732313A20617070726F76652063616C6C6572206973206E6F74206F77 PUSH1 0x44 DUP3 ADD MSTORE PUSH32 0x6E6572206E6F7220617070726F76656420666F7220616C6C0000000000000000 PUSH1 0x64 DUP3 ADD MSTORE PUSH1 0x84 ADD PUSH2 0x663 JUMP JUMPDEST PUSH2 0x8B7 DUP4 DUP4 PUSH2 0x106D JUMP JUMPDEST POP POP POP JUMP JUMPDEST PUSH1 0x0 PUSH2 0x8C7 PUSH1 0x7 SLOAD SWAP1 JUMP JUMPDEST SWAP1 POP SWAP1 JUMP JUMPDEST PUSH2 0x8D6 CALLER DUP3 PUSH2 0x10DB JUMP JUMPDEST PUSH2 0x8F2 JUMPI PUSH1 0x40 MLOAD PUSH3 0x461BCD PUSH1 0xE5 SHL DUP2 MSTORE PUSH1 0x4 ADD PUSH2 0x663 SWAP1 PUSH2 0x1CB3 JUMP JUMPDEST PUSH2 0x8B7 DUP4 DUP4 DUP4 PUSH2 0x11D2 JUMP JUMPDEST PUSH1 0x6 SLOAD PUSH1 0x1 PUSH1 0x1 PUSH1 0xA0 SHL SUB AND CALLER EQ PUSH2 0x927 JUMPI PUSH1 0x40 MLOAD PUSH3 0x461BCD PUSH1 0xE5 SHL DUP2 MSTORE PUSH1 0x4 ADD PUSH2 0x663 SWAP1 PUSH2 0x1C7E JUMP JUMPDEST PUSH1 0x40 MLOAD CALLER SWAP1 SELFBALANCE DUP1 ISZERO PUSH2 0x8FC MUL SWAP2 PUSH1 0x0 DUP2 DUP2 DUP2 DUP6 DUP9 DUP9 CALL SWAP4 POP POP POP POP PUSH2 0x94B JUMPI PUSH1 0x0 DUP1 REVERT JUMPDEST JUMP JUMPDEST ORIGIN CALLER EQ PUSH2 0x987 JUMPI PUSH1 0x40 MLOAD PUSH3 0x461BCD PUSH1 0xE5 SHL DUP2 MSTORE PUSH1 0x20 PUSH1 0x4 DUP3 ADD MSTORE PUSH1 0x8 PUSH1 0x24 DUP3 ADD MSTORE PUSH8 0x4F6E6C7920454F41 PUSH1 0xC0 SHL PUSH1 0x44 DUP3 ADD MSTORE PUSH1 0x64 ADD PUSH2 0x663 JUMP JUMPDEST PUSH1 0xE SLOAD PUSH1 0xFF AND ISZERO PUSH2 0x997 JUMPI PUSH1 0x0 DUP1 REVERT JUMPDEST PUSH1 0x0 DUP2 GT PUSH2 0x9A4 JUMPI PUSH1 0x0 DUP1 REVERT JUMPDEST PUSH1 0xC SLOAD DUP2 PUSH2 0x9B1 PUSH1 0x7 SLOAD SWAP1 JUMP JUMPDEST PUSH2 0x9BB SWAP2 SWAP1 PUSH2 0x1D04 JUMP JUMPDEST GT ISZERO PUSH2 0x9C6 JUMPI PUSH1 0x0 DUP1 REVERT JUMPDEST PUSH1 0xD SLOAD DUP2 GT ISZERO PUSH2 0x9D5 JUMPI PUSH1 0x0 DUP1 REVERT JUMPDEST DUP1 PUSH1 0xA SLOAD PUSH2 0x9E3 SWAP2 SWAP1 PUSH2 0x1D30 JUMP JUMPDEST CALLVALUE LT ISZERO PUSH2 0xA25 JUMPI PUSH1 0x40 MLOAD PUSH3 0x461BCD PUSH1 0xE5 SHL DUP2 MSTORE PUSH1 0x20 PUSH1 0x4 DUP3 ADD MSTORE PUSH1 0x10 PUSH1 0x24 DUP3 ADD MSTORE PUSH16 0x2737BA1032B737BAB3B41032BA3432B9 PUSH1 0x81 SHL PUSH1 0x44 DUP3 ADD MSTORE PUSH1 0x64 ADD PUSH2 0x663 JUMP JUMPDEST PUSH1 0x1 JUMPDEST DUP2 DUP2 GT PUSH2 0x8B7 JUMPI PUSH2 0xA3D PUSH1 0x7 DUP1 SLOAD PUSH1 0x1 ADD SWAP1 SSTORE JUMP JUMPDEST PUSH2 0xA4F DUP4 PUSH2 0xA4A PUSH1 0x7 SLOAD SWAP1 JUMP JUMPDEST PUSH2 0x1372 JUMP JUMPDEST DUP1 PUSH2 0xA59 DUP2 PUSH2 0x1DCD JUMP JUMPDEST SWAP2 POP POP PUSH2 0xA28 JUMP JUMPDEST PUSH2 0x8B7 DUP4 DUP4 DUP4 PUSH1 0x40 MLOAD DUP1 PUSH1 0x20 ADD PUSH1 0x40 MSTORE DUP1 PUSH1 0x0 DUP2 MSTORE POP PUSH2 0xE5F JUMP JUMPDEST PUSH1 0x6 SLOAD PUSH1 0x1 PUSH1 0x1 PUSH1 0xA0 SHL SUB AND CALLER EQ PUSH2 0xAA6 JUMPI PUSH1 0x40 MLOAD PUSH3 0x461BCD PUSH1 0xE5 SHL DUP2 MSTORE PUSH1 0x4 ADD PUSH2 0x663 SWAP1 PUSH2 0x1C7E JUMP JUMPDEST PUSH1 0xA SSTORE JUMP JUMPDEST PUSH1 0x6 SLOAD PUSH1 0x1 PUSH1 0x1 PUSH1 0xA0 SHL SUB AND CALLER EQ PUSH2 0xAD5 JUMPI PUSH1 0x40 MLOAD PUSH3 0x461BCD PUSH1 0xE5 SHL DUP2 MSTORE PUSH1 0x4 ADD PUSH2 0x663 SWAP1 PUSH2 0x1C7E JUMP JUMPDEST DUP1 MLOAD PUSH2 0xAE8 SWAP1 PUSH1 0x8 SWAP1 PUSH1 0x20 DUP5 ADD SWAP1 PUSH2 0x17A0 JUMP JUMPDEST POP POP JUMP JUMPDEST PUSH1 0x0 DUP2 DUP2 MSTORE PUSH1 0x2 PUSH1 0x20 MSTORE PUSH1 0x40 DUP2 KECCAK256 SLOAD PUSH1 0x1 PUSH1 0x1 PUSH1 0xA0 SHL SUB AND DUP1 PUSH2 0x633 JUMPI PUSH1 0x40 MLOAD PUSH3 0x461BCD PUSH1 0xE5 SHL DUP2 MSTORE PUSH1 0x20 PUSH1 0x4 DUP3 ADD MSTORE PUSH1 0x29 PUSH1 0x24 DUP3 ADD MSTORE PUSH32 0x4552433732313A206F776E657220717565727920666F72206E6F6E6578697374 PUSH1 0x44 DUP3 ADD MSTORE PUSH9 0x32B73A103A37B5B2B7 PUSH1 0xB9 SHL PUSH1 0x64 DUP3 ADD MSTORE PUSH1 0x84 ADD PUSH2 0x663 JUMP JUMPDEST PUSH1 0x8 DUP1 SLOAD PUSH2 0xB70 SWAP1 PUSH2 0x1D92 JUMP JUMPDEST DUP1 PUSH1 0x1F ADD PUSH1 0x20 DUP1 SWAP2 DIV MUL PUSH1 0x20 ADD PUSH1 0x40 MLOAD SWAP1 DUP2 ADD PUSH1 0x40 MSTORE DUP1 SWAP3 SWAP2 SWAP1 DUP2 DUP2 MSTORE PUSH1 0x20 ADD DUP3 DUP1 SLOAD PUSH2 0xB9C SWAP1 PUSH2 0x1D92 JUMP JUMPDEST DUP1 ISZERO PUSH2 0xBE9 JUMPI DUP1 PUSH1 0x1F LT PUSH2 0xBBE JUMPI PUSH2 0x100 DUP1 DUP4 SLOAD DIV MUL DUP4 MSTORE SWAP2 PUSH1 0x20 ADD SWAP2 PUSH2 0xBE9 JUMP JUMPDEST DUP3 ADD SWAP2 SWAP1 PUSH1 0x0 MSTORE PUSH1 0x20 PUSH1 0x0 KECCAK256 SWAP1 JUMPDEST DUP2 SLOAD DUP2 MSTORE SWAP1 PUSH1 0x1 ADD SWAP1 PUSH1 0x20 ADD DUP1 DUP4 GT PUSH2 0xBCC JUMPI DUP3 SWAP1 SUB PUSH1 0x1F AND DUP3 ADD SWAP2 JUMPDEST POP POP POP POP POP DUP2 JUMP JUMPDEST PUSH1 0x0 PUSH1 0x1 PUSH1 0x1 PUSH1 0xA0 SHL SUB DUP3 AND PUSH2 0xC5C JUMPI PUSH1 0x40 MLOAD PUSH3 0x461BCD PUSH1 0xE5 SHL DUP2 MSTORE PUSH1 0x20 PUSH1 0x4 DUP3 ADD MSTORE PUSH1 0x2A PUSH1 0x24 DUP3 ADD MSTORE PUSH32 0x4552433732313A2062616C616E636520717565727920666F7220746865207A65 PUSH1 0x44 DUP3 ADD MSTORE PUSH10 0x726F2061646472657373 PUSH1 0xB0 SHL PUSH1 0x64 DUP3 ADD MSTORE PUSH1 0x84 ADD PUSH2 0x663 JUMP JUMPDEST POP PUSH1 0x1 PUSH1 0x1 PUSH1 0xA0 SHL SUB AND PUSH1 0x0 SWAP1 DUP2 MSTORE PUSH1 0x3 PUSH1 0x20 MSTORE PUSH1 0x40 SWAP1 KECCAK256 SLOAD SWAP1 JUMP JUMPDEST PUSH1 0x6 SLOAD PUSH1 0x1 PUSH1 0x1 PUSH1 0xA0 SHL SUB AND CALLER EQ PUSH2 0xCA2 JUMPI PUSH1 0x40 MLOAD PUSH3 0x461BCD PUSH1 0xE5 SHL DUP2 MSTORE PUSH1 0x4 ADD PUSH2 0x663 SWAP1 PUSH2 0x1C7E JUMP JUMPDEST PUSH2 0x94B PUSH1 0x0 PUSH2 0x138C JUMP JUMPDEST PUSH1 0x6 SLOAD PUSH1 0x1 PUSH1 0x1 PUSH1 0xA0 SHL SUB AND CALLER EQ PUSH2 0xCD6 JUMPI PUSH1 0x40 MLOAD PUSH3 0x461BCD PUSH1 0xE5 SHL DUP2 MSTORE PUSH1 0x4 ADD PUSH2 0x663 SWAP1 PUSH2 0x1C7E JUMP JUMPDEST PUSH1 0xD SSTORE JUMP JUMPDEST PUSH1 0x60 PUSH1 0x1 DUP1 SLOAD PUSH2 0x68E SWAP1 PUSH2 0x1D92 JUMP JUMPDEST PUSH1 0x1 PUSH1 0x1 PUSH1 0xA0 SHL SUB DUP3 AND CALLER EQ ISZERO PUSH2 0xD43 JUMPI PUSH1 0x40 MLOAD PUSH3 0x461BCD PUSH1 0xE5 SHL DUP2 MSTORE PUSH1 0x20 PUSH1 0x4 DUP3 ADD MSTORE PUSH1 0x19 PUSH1 0x24 DUP3 ADD MSTORE PUSH32 0x4552433732313A20617070726F766520746F2063616C6C657200000000000000 PUSH1 0x44 DUP3 ADD MSTORE PUSH1 0x64 ADD PUSH2 0x663 JUMP JUMPDEST CALLER PUSH1 0x0 DUP2 DUP2 MSTORE PUSH1 0x5 PUSH1 0x20 SWAP1 DUP2 MSTORE PUSH1 0x40 DUP1 DUP4 KECCAK256 PUSH1 0x1 PUSH1 0x1 PUSH1 0xA0 SHL SUB DUP8 AND DUP1 DUP6 MSTORE SWAP1 DUP4 MSTORE SWAP3 DUP2 SWAP1 KECCAK256 DUP1 SLOAD PUSH1 0xFF NOT AND DUP7 ISZERO ISZERO SWAP1 DUP2 OR SWAP1 SWAP2 SSTORE SWAP1 MLOAD SWAP1 DUP2 MSTORE SWAP2 SWAP3 SWAP2 PUSH32 0x17307EAB39AB6107E8899845AD3D59BD9653F200F220920489CA2B5937696C31 SWAP2 ADD PUSH1 0x40 MLOAD DUP1 SWAP2 SUB SWAP1 LOG3 POP POP JUMP JUMPDEST ORIGIN CALLER EQ PUSH2 0xDE9 JUMPI PUSH1 0x40 MLOAD PUSH3 0x461BCD PUSH1 0xE5 SHL DUP2 MSTORE PUSH1 0x20 PUSH1 0x4 DUP3 ADD MSTORE PUSH1 0x8 PUSH1 0x24 DUP3 ADD MSTORE PUSH8 0x4F6E6C7920454F41 PUSH1 0xC0 SHL PUSH1 0x44 DUP3 ADD MSTORE PUSH1 0x64 ADD PUSH2 0x663 JUMP JUMPDEST PUSH1 0xE SLOAD PUSH1 0xFF AND ISZERO PUSH2 0xDF9 JUMPI PUSH1 0x0 DUP1 REVERT JUMPDEST PUSH1 0x0 DUP2 GT PUSH2 0xE06 JUMPI PUSH1 0x0 DUP1 REVERT JUMPDEST PUSH1 0xB SLOAD DUP2 PUSH2 0xE13 PUSH1 0x7 SLOAD SWAP1 JUMP JUMPDEST PUSH2 0xE1D SWAP2 SWAP1 PUSH2 0x1D04 JUMP JUMPDEST GT ISZERO PUSH2 0xE28 JUMPI PUSH1 0x0 DUP1 REVERT JUMPDEST PUSH1 0x1 JUMPDEST DUP2 DUP2 GT PUSH2 0x8B7 JUMPI PUSH2 0xE40 PUSH1 0x7 DUP1 SLOAD PUSH1 0x1 ADD SWAP1 SSTORE JUMP JUMPDEST PUSH2 0xE4D DUP4 PUSH2 0xA4A PUSH1 0x7 SLOAD SWAP1 JUMP JUMPDEST DUP1 PUSH2 0xE57 DUP2 PUSH2 0x1DCD JUMP JUMPDEST SWAP2 POP POP PUSH2 0xE2B JUMP JUMPDEST PUSH2 0xE69 CALLER DUP4 PUSH2 0x10DB JUMP JUMPDEST PUSH2 0xE85 JUMPI PUSH1 0x40 MLOAD PUSH3 0x461BCD PUSH1 0xE5 SHL DUP2 MSTORE PUSH1 0x4 ADD PUSH2 0x663 SWAP1 PUSH2 0x1CB3 JUMP JUMPDEST PUSH2 0xE91 DUP5 DUP5 DUP5 DUP5 PUSH2 0x13DE JUMP JUMPDEST POP POP POP POP JUMP JUMPDEST PUSH1 0x9 DUP1 SLOAD PUSH2 0xB70 SWAP1 PUSH2 0x1D92 JUMP JUMPDEST PUSH1 0x0 DUP2 DUP2 MSTORE PUSH1 0x2 PUSH1 0x20 MSTORE PUSH1 0x40 SWAP1 KECCAK256 SLOAD PUSH1 0x60 SWAP1 PUSH1 0x1 PUSH1 0x1 PUSH1 0xA0 SHL SUB AND PUSH2 0xF23 JUMPI PUSH1 0x40 MLOAD PUSH3 0x461BCD PUSH1 0xE5 SHL DUP2 MSTORE PUSH1 0x20 PUSH1 0x4 DUP3 ADD MSTORE PUSH1 0x2F PUSH1 0x24 DUP3 ADD MSTORE PUSH32 0x4552433732314D657461646174613A2055524920717565727920666F72206E6F PUSH1 0x44 DUP3 ADD MSTORE PUSH15 0x3732BC34B9BA32B73A103A37B5B2B7 PUSH1 0x89 SHL PUSH1 0x64 DUP3 ADD MSTORE PUSH1 0x84 ADD PUSH2 0x663 JUMP JUMPDEST PUSH1 0x0 PUSH2 0xF2D PUSH2 0x1411 JUMP JUMPDEST SWAP1 POP PUSH1 0x0 DUP2 MLOAD GT PUSH2 0xF4D JUMPI PUSH1 0x40 MLOAD DUP1 PUSH1 0x20 ADD PUSH1 0x40 MSTORE DUP1 PUSH1 0x0 DUP2 MSTORE POP PUSH2 0xF7B JUMP JUMPDEST DUP1 PUSH2 0xF57 DUP5 PUSH2 0x1420 JUMP JUMPDEST PUSH1 0x9 PUSH1 0x40 MLOAD PUSH1 0x20 ADD PUSH2 0xF6B SWAP4 SWAP3 SWAP2 SWAP1 PUSH2 0x1B18 JUMP JUMPDEST PUSH1 0x40 MLOAD PUSH1 0x20 DUP2 DUP4 SUB SUB DUP2 MSTORE SWAP1 PUSH1 0x40 MSTORE JUMPDEST SWAP4 SWAP3 POP POP POP JUMP JUMPDEST PUSH1 0x6 SLOAD PUSH1 0x1 PUSH1 0x1 PUSH1 0xA0 SHL SUB AND CALLER EQ PUSH2 0xFAC JUMPI PUSH1 0x40 MLOAD PUSH3 0x461BCD PUSH1 0xE5 SHL DUP2 MSTORE PUSH1 0x4 ADD PUSH2 0x663 SWAP1 PUSH2 0x1C7E JUMP JUMPDEST DUP1 MLOAD PUSH2 0xAE8 SWAP1 PUSH1 0x9 SWAP1 PUSH1 0x20 DUP5 ADD SWAP1 PUSH2 0x17A0 JUMP JUMPDEST PUSH1 0x6 SLOAD PUSH1 0x1 PUSH1 0x1 PUSH1 0xA0 SHL SUB AND CALLER EQ PUSH2 0xFE9 JUMPI PUSH1 0x40 MLOAD PUSH3 0x461BCD PUSH1 0xE5 SHL DUP2 MSTORE PUSH1 0x4 ADD PUSH2 0x663 SWAP1 PUSH2 0x1C7E JUMP JUMPDEST PUSH1 0x1 PUSH1 0x1 PUSH1 0xA0 SHL SUB DUP2 AND PUSH2 0x104E JUMPI PUSH1 0x40 MLOAD PUSH3 0x461BCD PUSH1 0xE5 SHL DUP2 MSTORE PUSH1 0x20 PUSH1 0x4 DUP3 ADD MSTORE PUSH1 0x26 PUSH1 0x24 DUP3 ADD MSTORE PUSH32 0x4F776E61626C653A206E6577206F776E657220697320746865207A65726F2061 PUSH1 0x44 DUP3 ADD MSTORE PUSH6 0x646472657373 PUSH1 0xD0 SHL PUSH1 0x64 DUP3 ADD MSTORE PUSH1 0x84 ADD PUSH2 0x663 JUMP JUMPDEST PUSH2 0x1057 DUP2 PUSH2 0x138C JUMP JUMPDEST POP JUMP JUMPDEST SLOAD SWAP1 JUMP JUMPDEST DUP1 SLOAD PUSH1 0x1 ADD SWAP1 SSTORE JUMP JUMPDEST EXTCODESIZE ISZERO ISZERO SWAP1 JUMP JUMPDEST PUSH1 0x0 DUP2 DUP2 MSTORE PUSH1 0x4 PUSH1 0x20 MSTORE PUSH1 0x40 SWAP1 KECCAK256 DUP1 SLOAD PUSH1 0x1 PUSH1 0x1 PUSH1 0xA0 SHL SUB NOT AND PUSH1 0x1 PUSH1 0x1 PUSH1 0xA0 SHL SUB DUP5 AND SWAP1 DUP2 OR SWAP1 SWAP2 SSTORE DUP2 SWAP1 PUSH2 0x10A2 DUP3 PUSH2 0xAEC JUMP JUMPDEST PUSH1 0x1 PUSH1 0x1 PUSH1 0xA0 SHL SUB AND PUSH32 0x8C5BE1E5EBEC7D5BD14F71427D1E84F3DD0314C0F7B2291E5B200AC8C7C3B925 PUSH1 0x40 MLOAD PUSH1 0x40 MLOAD DUP1 SWAP2 SUB SWAP1 LOG4 POP POP JUMP JUMPDEST PUSH1 0x0 DUP2 DUP2 MSTORE PUSH1 0x2 PUSH1 0x20 MSTORE PUSH1 0x40 DUP2 KECCAK256 SLOAD PUSH1 0x1 PUSH1 0x1 PUSH1 0xA0 SHL SUB AND PUSH2 0x1154 JUMPI PUSH1 0x40 MLOAD PUSH3 0x461BCD PUSH1 0xE5 SHL DUP2 MSTORE PUSH1 0x20 PUSH1 0x4 DUP3 ADD MSTORE PUSH1 0x2C PUSH1 0x24 DUP3 ADD MSTORE PUSH32 0x4552433732313A206F70657261746F7220717565727920666F72206E6F6E6578 PUSH1 0x44 DUP3 ADD MSTORE PUSH12 0x34B9BA32B73A103A37B5B2B7 PUSH1 0xA1 SHL PUSH1 0x64 DUP3 ADD MSTORE PUSH1 0x84 ADD PUSH2 0x663 JUMP JUMPDEST PUSH1 0x0 PUSH2 0x115F DUP4 PUSH2 0xAEC JUMP JUMPDEST SWAP1 POP DUP1 PUSH1 0x1 PUSH1 0x1 PUSH1 0xA0 SHL SUB AND DUP5 PUSH1 0x1 PUSH1 0x1 PUSH1 0xA0 SHL SUB AND EQ DUP1 PUSH2 0x119A JUMPI POP DUP4 PUSH1 0x1 PUSH1 0x1 PUSH1 0xA0 SHL SUB AND PUSH2 0x118F DUP5 PUSH2 0x711 JUMP JUMPDEST PUSH1 0x1 PUSH1 0x1 PUSH1 0xA0 SHL SUB AND EQ JUMPDEST DUP1 PUSH2 0x11CA JUMPI POP PUSH1 0x1 PUSH1 0x1 PUSH1 0xA0 SHL SUB DUP1 DUP3 AND PUSH1 0x0 SWAP1 DUP2 MSTORE PUSH1 0x5 PUSH1 0x20 SWAP1 DUP2 MSTORE PUSH1 0x40 DUP1 DUP4 KECCAK256 SWAP4 DUP9 AND DUP4 MSTORE SWAP3 SWAP1 MSTORE KECCAK256 SLOAD PUSH1 0xFF AND JUMPDEST SWAP5 SWAP4 POP POP POP POP JUMP JUMPDEST DUP3 PUSH1 0x1 PUSH1 0x1 PUSH1 0xA0 SHL SUB AND PUSH2 0x11E5 DUP3 PUSH2 0xAEC JUMP JUMPDEST PUSH1 0x1 PUSH1 0x1 PUSH1 0xA0 SHL SUB AND EQ PUSH2 0x124D JUMPI PUSH1 0x40 MLOAD PUSH3 0x461BCD PUSH1 0xE5 SHL DUP2 MSTORE PUSH1 0x20 PUSH1 0x4 DUP3 ADD MSTORE PUSH1 0x29 PUSH1 0x24 DUP3 ADD MSTORE PUSH32 0x4552433732313A207472616E73666572206F6620746F6B656E20746861742069 PUSH1 0x44 DUP3 ADD MSTORE PUSH9 0x39903737BA1037BBB7 PUSH1 0xB9 SHL PUSH1 0x64 DUP3 ADD MSTORE PUSH1 0x84 ADD PUSH2 0x663 JUMP JUMPDEST PUSH1 0x1 PUSH1 0x1 PUSH1 0xA0 SHL SUB DUP3 AND PUSH2 0x12AF JUMPI PUSH1 0x40 MLOAD PUSH3 0x461BCD PUSH1 0xE5 SHL DUP2 MSTORE PUSH1 0x20 PUSH1 0x4 DUP3 ADD MSTORE PUSH1 0x24 DUP1 DUP3 ADD MSTORE PUSH32 0x4552433732313A207472616E7366657220746F20746865207A65726F20616464 PUSH1 0x44 DUP3 ADD MSTORE PUSH4 0x72657373 PUSH1 0xE0 SHL PUSH1 0x64 DUP3 ADD MSTORE PUSH1 0x84 ADD PUSH2 0x663 JUMP JUMPDEST PUSH2 0x12BA PUSH1 0x0 DUP3 PUSH2 0x106D JUMP JUMPDEST PUSH1 0x1 PUSH1 0x1 PUSH1 0xA0 SHL SUB DUP4 AND PUSH1 0x0 SWAP1 DUP2 MSTORE PUSH1 0x3 PUSH1 0x20 MSTORE PUSH1 0x40 DUP2 KECCAK256 DUP1 SLOAD PUSH1 0x1 SWAP3 SWAP1 PUSH2 0x12E3 SWAP1 DUP5 SWAP1 PUSH2 0x1D4F JUMP JUMPDEST SWAP1 SWAP2 SSTORE POP POP PUSH1 0x1 PUSH1 0x1 PUSH1 0xA0 SHL SUB DUP3 AND PUSH1 0x0 SWAP1 DUP2 MSTORE PUSH1 0x3 PUSH1 0x20 MSTORE PUSH1 0x40 DUP2 KECCAK256 DUP1 SLOAD PUSH1 0x1 SWAP3 SWAP1 PUSH2 0x1311 SWAP1 DUP5 SWAP1 PUSH2 0x1D04 JUMP JUMPDEST SWAP1 SWAP2 SSTORE POP POP PUSH1 0x0 DUP2 DUP2 MSTORE PUSH1 0x2 PUSH1 0x20 MSTORE PUSH1 0x40 DUP1 DUP3 KECCAK256 DUP1 SLOAD PUSH1 0x1 PUSH1 0x1 PUSH1 0xA0 SHL SUB NOT AND PUSH1 0x1 PUSH1 0x1 PUSH1 0xA0 SHL SUB DUP7 DUP2 AND SWAP2 DUP3 OR SWAP1 SWAP3 SSTORE SWAP2 MLOAD DUP5 SWAP4 SWAP2 DUP8 AND SWAP2 PUSH32 0xDDF252AD1BE2C89B69C2B068FC378DAA952BA7F163C4A11628F55A4DF523B3EF SWAP2 LOG4 POP POP POP JUMP JUMPDEST PUSH2 0xAE8 DUP3 DUP3 PUSH1 0x40 MLOAD DUP1 PUSH1 0x20 ADD PUSH1 0x40 MSTORE DUP1 PUSH1 0x0 DUP2 MSTORE POP PUSH2 0x151E JUMP JUMPDEST PUSH1 0x6 DUP1 SLOAD PUSH1 0x1 PUSH1 0x1 PUSH1 0xA0 SHL SUB DUP4 DUP2 AND PUSH1 0x1 PUSH1 0x1 PUSH1 0xA0 SHL SUB NOT DUP4 AND DUP2 OR SWAP1 SWAP4 SSTORE PUSH1 0x40 MLOAD SWAP2 AND SWAP2 SWAP1 DUP3 SWAP1 PUSH32 0x8BE0079C531659141344CD1FD0A4F28419497F9722A3DAAFE3B4186F6B6457E0 SWAP1 PUSH1 0x0 SWAP1 LOG3 POP POP JUMP JUMPDEST PUSH2 0x13E9 DUP5 DUP5 DUP5 PUSH2 0x11D2 JUMP JUMPDEST PUSH2 0x13F5 DUP5 DUP5 DUP5 DUP5 PUSH2 0x1551 JUMP JUMPDEST PUSH2 0xE91 JUMPI PUSH1 0x40 MLOAD PUSH3 0x461BCD PUSH1 0xE5 SHL DUP2 MSTORE PUSH1 0x4 ADD PUSH2 0x663 SWAP1 PUSH2 0x1C2C JUMP JUMPDEST PUSH1 0x60 PUSH1 0x8 DUP1 SLOAD PUSH2 0x68E SWAP1 PUSH2 0x1D92 JUMP JUMPDEST PUSH1 0x60 DUP2 PUSH2 0x1444 JUMPI POP POP PUSH1 0x40 DUP1 MLOAD DUP1 DUP3 ADD SWAP1 SWAP2 MSTORE PUSH1 0x1 DUP2 MSTORE PUSH1 0x3 PUSH1 0xFC SHL PUSH1 0x20 DUP3 ADD MSTORE SWAP1 JUMP JUMPDEST DUP2 PUSH1 0x0 JUMPDEST DUP2 ISZERO PUSH2 0x146E JUMPI DUP1 PUSH2 0x1458 DUP2 PUSH2 0x1DCD JUMP JUMPDEST SWAP2 POP PUSH2 0x1467 SWAP1 POP PUSH1 0xA DUP4 PUSH2 0x1D1C JUMP JUMPDEST SWAP2 POP PUSH2 0x1448 JUMP JUMPDEST PUSH1 0x0 DUP2 PUSH8 0xFFFFFFFFFFFFFFFF DUP2 GT ISZERO PUSH2 0x1489 JUMPI PUSH2 0x1489 PUSH2 0x1E3E JUMP JUMPDEST PUSH1 0x40 MLOAD SWAP1 DUP1 DUP3 MSTORE DUP1 PUSH1 0x1F ADD PUSH1 0x1F NOT AND PUSH1 0x20 ADD DUP3 ADD PUSH1 0x40 MSTORE DUP1 ISZERO PUSH2 0x14B3 JUMPI PUSH1 0x20 DUP3 ADD DUP2 DUP1 CALLDATASIZE DUP4 CALLDATACOPY ADD SWAP1 POP JUMPDEST POP SWAP1 POP JUMPDEST DUP5 ISZERO PUSH2 0x11CA JUMPI PUSH2 0x14C8 PUSH1 0x1 DUP4 PUSH2 0x1D4F JUMP JUMPDEST SWAP2 POP PUSH2 0x14D5 PUSH1 0xA DUP7 PUSH2 0x1DE8 JUMP JUMPDEST PUSH2 0x14E0 SWAP1 PUSH1 0x30 PUSH2 0x1D04 JUMP JUMPDEST PUSH1 0xF8 SHL DUP2 DUP4 DUP2 MLOAD DUP2 LT PUSH2 0x14F5 JUMPI PUSH2 0x14F5 PUSH2 0x1E28 JUMP JUMPDEST PUSH1 0x20 ADD ADD SWAP1 PUSH1 0x1 PUSH1 0x1 PUSH1 0xF8 SHL SUB NOT AND SWAP1 DUP2 PUSH1 0x0 BYTE SWAP1 MSTORE8 POP PUSH2 0x1517 PUSH1 0xA DUP7 PUSH2 0x1D1C JUMP JUMPDEST SWAP5 POP PUSH2 0x14B7 JUMP JUMPDEST PUSH2 0x1528 DUP4 DUP4 PUSH2 0x165E JUMP JUMPDEST PUSH2 0x1535 PUSH1 0x0 DUP5 DUP5 DUP5 PUSH2 0x1551 JUMP JUMPDEST PUSH2 0x8B7 JUMPI PUSH1 0x40 MLOAD PUSH3 0x461BCD PUSH1 0xE5 SHL DUP2 MSTORE PUSH1 0x4 ADD PUSH2 0x663 SWAP1 PUSH2 0x1C2C JUMP JUMPDEST PUSH1 0x0 PUSH1 0x1 PUSH1 0x1 PUSH1 0xA0 SHL SUB DUP5 AND EXTCODESIZE ISZERO PUSH2 0x1653 JUMPI PUSH1 0x40 MLOAD PUSH4 0xA85BD01 PUSH1 0xE1 SHL DUP2 MSTORE PUSH1 0x1 PUSH1 0x1 PUSH1 0xA0 SHL SUB DUP6 AND SWAP1 PUSH4 0x150B7A02 SWAP1 PUSH2 0x1595 SWAP1 CALLER SWAP1 DUP10 SWAP1 DUP9 SWAP1 DUP9 SWAP1 PUSH1 0x4 ADD PUSH2 0x1BDC JUMP JUMPDEST PUSH1 0x20 PUSH1 0x40 MLOAD DUP1 DUP4 SUB DUP2 PUSH1 0x0 DUP8 DUP1 EXTCODESIZE ISZERO DUP1 ISZERO PUSH2 0x15AF JUMPI PUSH1 0x0 DUP1 REVERT JUMPDEST POP GAS CALL SWAP3 POP POP POP DUP1 ISZERO PUSH2 0x15DF JUMPI POP PUSH1 0x40 DUP1 MLOAD PUSH1 0x1F RETURNDATASIZE SWAP1 DUP2 ADD PUSH1 0x1F NOT AND DUP3 ADD SWAP1 SWAP3 MSTORE PUSH2 0x15DC SWAP2 DUP2 ADD SWAP1 PUSH2 0x1A6D JUMP JUMPDEST PUSH1 0x1 JUMPDEST PUSH2 0x1639 JUMPI RETURNDATASIZE DUP1 DUP1 ISZERO PUSH2 0x160D JUMPI PUSH1 0x40 MLOAD SWAP2 POP PUSH1 0x1F NOT PUSH1 0x3F RETURNDATASIZE ADD AND DUP3 ADD PUSH1 0x40 MSTORE RETURNDATASIZE DUP3 MSTORE RETURNDATASIZE PUSH1 0x0 PUSH1 0x20 DUP5 ADD RETURNDATACOPY PUSH2 0x1612 JUMP JUMPDEST PUSH1 0x60 SWAP2 POP JUMPDEST POP DUP1 MLOAD PUSH2 0x1631 JUMPI PUSH1 0x40 MLOAD PUSH3 0x461BCD PUSH1 0xE5 SHL DUP2 MSTORE PUSH1 0x4 ADD PUSH2 0x663 SWAP1 PUSH2 0x1C2C JUMP JUMPDEST DUP1 MLOAD DUP2 PUSH1 0x20 ADD REVERT JUMPDEST PUSH1 0x1 PUSH1 0x1 PUSH1 0xE0 SHL SUB NOT AND PUSH4 0xA85BD01 PUSH1 0xE1 SHL EQ SWAP1 POP PUSH2 0x11CA JUMP JUMPDEST POP PUSH1 0x1 SWAP5 SWAP4 POP POP POP POP JUMP JUMPDEST PUSH1 0x1 PUSH1 0x1 PUSH1 0xA0 SHL SUB DUP3 AND PUSH2 0x16B4 JUMPI PUSH1 0x40 MLOAD PUSH3 0x461BCD PUSH1 0xE5 SHL DUP2 MSTORE PUSH1 0x20 PUSH1 0x4 DUP3 ADD DUP2 SWAP1 MSTORE PUSH1 0x24 DUP3 ADD MSTORE PUSH32 0x4552433732313A206D696E7420746F20746865207A65726F2061646472657373 PUSH1 0x44 DUP3 ADD MSTORE PUSH1 0x64 ADD PUSH2 0x663 JUMP JUMPDEST PUSH1 0x0 DUP2 DUP2 MSTORE PUSH1 0x2 PUSH1 0x20 MSTORE PUSH1 0x40 SWAP1 KECCAK256 SLOAD PUSH1 0x1 PUSH1 0x1 PUSH1 0xA0 SHL SUB AND ISZERO PUSH2 0x1719 JUMPI PUSH1 0x40 MLOAD PUSH3 0x461BCD PUSH1 0xE5 SHL DUP2 MSTORE PUSH1 0x20 PUSH1 0x4 DUP3 ADD MSTORE PUSH1 0x1C PUSH1 0x24 DUP3 ADD MSTORE PUSH32 0x4552433732313A20746F6B656E20616C7265616479206D696E74656400000000 PUSH1 0x44 DUP3 ADD MSTORE PUSH1 0x64 ADD PUSH2 0x663 JUMP JUMPDEST PUSH1 0x1 PUSH1 0x1 PUSH1 0xA0 SHL SUB DUP3 AND PUSH1 0x0 SWAP1 DUP2 MSTORE PUSH1 0x3 PUSH1 0x20 MSTORE PUSH1 0x40 DUP2 KECCAK256 DUP1 SLOAD PUSH1 0x1 SWAP3 SWAP1 PUSH2 0x1742 SWAP1 DUP5 SWAP1 PUSH2 0x1D04 JUMP JUMPDEST SWAP1 SWAP2 SSTORE POP POP PUSH1 0x0 DUP2 DUP2 MSTORE PUSH1 0x2 PUSH1 0x20 MSTORE PUSH1 0x40 DUP1 DUP3 KECCAK256 DUP1 SLOAD PUSH1 0x1 PUSH1 0x1 PUSH1 0xA0 SHL SUB NOT AND PUSH1 0x1 PUSH1 0x1 PUSH1 0xA0 SHL SUB DUP7 AND SWAP1 DUP2 OR SWAP1 SWAP2 SSTORE SWAP1 MLOAD DUP4 SWAP3 SWAP1 PUSH32 0xDDF252AD1BE2C89B69C2B068FC378DAA952BA7F163C4A11628F55A4DF523B3EF SWAP1 DUP3 SWAP1 LOG4 POP POP JUMP JUMPDEST DUP3 DUP1 SLOAD PUSH2 0x17AC SWAP1 PUSH2 0x1D92 JUMP JUMPDEST SWAP1 PUSH1 0x0 MSTORE PUSH1 0x20 PUSH1 0x0 KECCAK256 SWAP1 PUSH1 0x1F ADD PUSH1 0x20 SWAP1 DIV DUP2 ADD SWAP3 DUP3 PUSH2 0x17CE JUMPI PUSH1 0x0 DUP6 SSTORE PUSH2 0x1814 JUMP JUMPDEST DUP3 PUSH1 0x1F LT PUSH2 0x17E7 JUMPI DUP1 MLOAD PUSH1 0xFF NOT AND DUP4 DUP1 ADD OR DUP6 SSTORE PUSH2 0x1814 JUMP JUMPDEST DUP3 DUP1 ADD PUSH1 0x1 ADD DUP6 SSTORE DUP3 ISZERO PUSH2 0x1814 JUMPI SWAP2 DUP3 ADD JUMPDEST DUP3 DUP2 GT ISZERO PUSH2 0x1814 JUMPI DUP3 MLOAD DUP3 SSTORE SWAP2 PUSH1 0x20 ADD SWAP2 SWAP1 PUSH1 0x1 ADD SWAP1 PUSH2 0x17F9 JUMP JUMPDEST POP PUSH2 0x1820 SWAP3 SWAP2 POP PUSH2 0x1824 JUMP JUMPDEST POP SWAP1 JUMP JUMPDEST JUMPDEST DUP1 DUP3 GT ISZERO PUSH2 0x1820 JUMPI PUSH1 0x0 DUP2 SSTORE PUSH1 0x1 ADD PUSH2 0x1825 JUMP JUMPDEST PUSH1 0x0 PUSH8 0xFFFFFFFFFFFFFFFF DUP1 DUP5 GT ISZERO PUSH2 0x1854 JUMPI PUSH2 0x1854 PUSH2 0x1E3E JUMP JUMPDEST PUSH1 0x40 MLOAD PUSH1 0x1F DUP6 ADD PUSH1 0x1F NOT SWAP1 DUP2 AND PUSH1 0x3F ADD AND DUP2 ADD SWAP1 DUP3 DUP3 GT DUP2 DUP4 LT OR ISZERO PUSH2 0x187C JUMPI PUSH2 0x187C PUSH2 0x1E3E JUMP JUMPDEST DUP2 PUSH1 0x40 MSTORE DUP1 SWAP4 POP DUP6 DUP2 MSTORE DUP7 DUP7 DUP7 ADD GT ISZERO PUSH2 0x1895 JUMPI PUSH1 0x0 DUP1 REVERT JUMPDEST DUP6 DUP6 PUSH1 0x20 DUP4 ADD CALLDATACOPY PUSH1 0x0 PUSH1 0x20 DUP8 DUP4 ADD ADD MSTORE POP POP POP SWAP4 SWAP3 POP POP POP JUMP JUMPDEST DUP1 CALLDATALOAD PUSH1 0x1 PUSH1 0x1 PUSH1 0xA0 SHL SUB DUP2 AND DUP2 EQ PUSH2 0x18C6 JUMPI PUSH1 0x0 DUP1 REVERT JUMPDEST SWAP2 SWAP1 POP JUMP JUMPDEST DUP1 CALLDATALOAD DUP1 ISZERO ISZERO DUP2 EQ PUSH2 0x18C6 JUMPI PUSH1 0x0 DUP1 REVERT JUMPDEST PUSH1 0x0 PUSH1 0x20 DUP3 DUP5 SUB SLT ISZERO PUSH2 0x18ED JUMPI PUSH1 0x0 DUP1 REVERT JUMPDEST PUSH2 0xF7B DUP3 PUSH2 0x18AF JUMP JUMPDEST PUSH1 0x0 DUP1 PUSH1 0x40 DUP4 DUP6 SUB SLT ISZERO PUSH2 0x1909 JUMPI PUSH1 0x0 DUP1 REVERT JUMPDEST PUSH2 0x1912 DUP4 PUSH2 0x18AF JUMP JUMPDEST SWAP2 POP PUSH2 0x1920 PUSH1 0x20 DUP5 ADD PUSH2 0x18AF JUMP JUMPDEST SWAP1 POP SWAP3 POP SWAP3 SWAP1 POP JUMP JUMPDEST PUSH1 0x0 DUP1 PUSH1 0x0 PUSH1 0x60 DUP5 DUP7 SUB SLT ISZERO PUSH2 0x193E JUMPI PUSH1 0x0 DUP1 REVERT JUMPDEST PUSH2 0x1947 DUP5 PUSH2 0x18AF JUMP JUMPDEST SWAP3 POP PUSH2 0x1955 PUSH1 0x20 DUP6 ADD PUSH2 0x18AF JUMP JUMPDEST SWAP2 POP PUSH1 0x40 DUP5 ADD CALLDATALOAD SWAP1 POP SWAP3 POP SWAP3 POP SWAP3 JUMP JUMPDEST PUSH1 0x0 DUP1 PUSH1 0x0 DUP1 PUSH1 0x80 DUP6 DUP8 SUB SLT ISZERO PUSH2 0x197B JUMPI PUSH1 0x0 DUP1 REVERT JUMPDEST PUSH2 0x1984 DUP6 PUSH2 0x18AF JUMP JUMPDEST SWAP4 POP PUSH2 0x1992 PUSH1 0x20 DUP7 ADD PUSH2 0x18AF JUMP JUMPDEST SWAP3 POP PUSH1 0x40 DUP6 ADD CALLDATALOAD SWAP2 POP PUSH1 0x60 DUP6 ADD CALLDATALOAD PUSH8 0xFFFFFFFFFFFFFFFF DUP2 GT ISZERO PUSH2 0x19B5 JUMPI PUSH1 0x0 DUP1 REVERT JUMPDEST DUP6 ADD PUSH1 0x1F DUP2 ADD DUP8 SGT PUSH2 0x19C6 JUMPI PUSH1 0x0 DUP1 REVERT JUMPDEST PUSH2 0x19D5 DUP8 DUP3 CALLDATALOAD PUSH1 0x20 DUP5 ADD PUSH2 0x1839 JUMP JUMPDEST SWAP2 POP POP SWAP3 SWAP6 SWAP2 SWAP5 POP SWAP3 POP JUMP JUMPDEST PUSH1 0x0 DUP1 PUSH1 0x40 DUP4 DUP6 SUB SLT ISZERO PUSH2 0x19F4 JUMPI PUSH1 0x0 DUP1 REVERT JUMPDEST PUSH2 0x19FD DUP4 PUSH2 0x18AF JUMP JUMPDEST SWAP2 POP PUSH2 0x1920 PUSH1 0x20 DUP5 ADD PUSH2 0x18CB JUMP JUMPDEST PUSH1 0x0 DUP1 PUSH1 0x40 DUP4 DUP6 SUB SLT ISZERO PUSH2 0x1A1E JUMPI PUSH1 0x0 DUP1 REVERT JUMPDEST PUSH2 0x1A27 DUP4 PUSH2 0x18AF JUMP JUMPDEST SWAP5 PUSH1 0x20 SWAP4 SWAP1 SWAP4 ADD CALLDATALOAD SWAP4 POP POP POP JUMP JUMPDEST PUSH1 0x0 PUSH1 0x20 DUP3 DUP5 SUB SLT ISZERO PUSH2 0x1A47 JUMPI PUSH1 0x0 DUP1 REVERT JUMPDEST PUSH2 0xF7B DUP3 PUSH2 0x18CB JUMP JUMPDEST PUSH1 0x0 PUSH1 0x20 DUP3 DUP5 SUB SLT ISZERO PUSH2 0x1A62 JUMPI PUSH1 0x0 DUP1 REVERT JUMPDEST DUP2 CALLDATALOAD PUSH2 0xF7B DUP2 PUSH2 0x1E54 JUMP JUMPDEST PUSH1 0x0 PUSH1 0x20 DUP3 DUP5 SUB SLT ISZERO PUSH2 0x1A7F JUMPI PUSH1 0x0 DUP1 REVERT JUMPDEST DUP2 MLOAD PUSH2 0xF7B DUP2 PUSH2 0x1E54 JUMP JUMPDEST PUSH1 0x0 PUSH1 0x20 DUP3 DUP5 SUB SLT ISZERO PUSH2 0x1A9C JUMPI PUSH1 0x0 DUP1 REVERT JUMPDEST DUP2 CALLDATALOAD PUSH8 0xFFFFFFFFFFFFFFFF DUP2 GT ISZERO PUSH2 0x1AB3 JUMPI PUSH1 0x0 DUP1 REVERT JUMPDEST DUP3 ADD PUSH1 0x1F DUP2 ADD DUP5 SGT PUSH2 0x1AC4 JUMPI PUSH1 0x0 DUP1 REVERT JUMPDEST PUSH2 0x11CA DUP5 DUP3 CALLDATALOAD PUSH1 0x20 DUP5 ADD PUSH2 0x1839 JUMP JUMPDEST PUSH1 0x0 PUSH1 0x20 DUP3 DUP5 SUB SLT ISZERO PUSH2 0x1AE5 JUMPI PUSH1 0x0 DUP1 REVERT JUMPDEST POP CALLDATALOAD SWAP2 SWAP1 POP JUMP JUMPDEST PUSH1 0x0 DUP2 MLOAD DUP1 DUP5 MSTORE PUSH2 0x1B04 DUP2 PUSH1 0x20 DUP7 ADD PUSH1 0x20 DUP7 ADD PUSH2 0x1D66 JUMP JUMPDEST PUSH1 0x1F ADD PUSH1 0x1F NOT AND SWAP3 SWAP1 SWAP3 ADD PUSH1 0x20 ADD SWAP3 SWAP2 POP POP JUMP JUMPDEST PUSH1 0x0 DUP5 MLOAD PUSH1 0x20 PUSH2 0x1B2B DUP3 DUP6 DUP4 DUP11 ADD PUSH2 0x1D66 JUMP JUMPDEST DUP6 MLOAD SWAP2 DUP5 ADD SWAP2 PUSH2 0x1B3E DUP2 DUP5 DUP5 DUP11 ADD PUSH2 0x1D66 JUMP JUMPDEST DUP6 SLOAD SWAP3 ADD SWAP2 PUSH1 0x0 SWAP1 PUSH1 0x1 DUP2 DUP2 SHR SWAP1 DUP1 DUP4 AND DUP1 PUSH2 0x1B5B JUMPI PUSH1 0x7F DUP4 AND SWAP3 POP JUMPDEST DUP6 DUP4 LT DUP2 EQ ISZERO PUSH2 0x1B79 JUMPI PUSH4 0x4E487B71 PUSH1 0xE0 SHL DUP6 MSTORE PUSH1 0x22 PUSH1 0x4 MSTORE PUSH1 0x24 DUP6 REVERT JUMPDEST DUP1 DUP1 ISZERO PUSH2 0x1B8D JUMPI PUSH1 0x1 DUP2 EQ PUSH2 0x1B9E JUMPI PUSH2 0x1BCB JUMP JUMPDEST PUSH1 0xFF NOT DUP6 AND DUP9 MSTORE DUP4 DUP9 ADD SWAP6 POP PUSH2 0x1BCB JUMP JUMPDEST PUSH1 0x0 DUP12 DUP2 MSTORE PUSH1 0x20 SWAP1 KECCAK256 PUSH1 0x0 JUMPDEST DUP6 DUP2 LT ISZERO PUSH2 0x1BC3 JUMPI DUP2 SLOAD DUP11 DUP3 ADD MSTORE SWAP1 DUP5 ADD SWAP1 DUP9 ADD PUSH2 0x1BAA JUMP JUMPDEST POP POP DUP4 DUP9 ADD SWAP6 POP JUMPDEST POP SWAP4 SWAP12 SWAP11 POP POP POP POP POP POP POP POP POP POP POP JUMP JUMPDEST PUSH1 0x1 PUSH1 0x1 PUSH1 0xA0 SHL SUB DUP6 DUP2 AND DUP3 MSTORE DUP5 AND PUSH1 0x20 DUP3 ADD MSTORE PUSH1 0x40 DUP2 ADD DUP4 SWAP1 MSTORE PUSH1 0x80 PUSH1 0x60 DUP3 ADD DUP2 SWAP1 MSTORE PUSH1 0x0 SWAP1 PUSH2 0x1C0F SWAP1 DUP4 ADD DUP5 PUSH2 0x1AEC JUMP JUMPDEST SWAP7 SWAP6 POP POP POP POP POP POP JUMP JUMPDEST PUSH1 0x20 DUP2 MSTORE PUSH1 0x0 PUSH2 0xF7B PUSH1 0x20 DUP4 ADD DUP5 PUSH2 0x1AEC JUMP JUMPDEST PUSH1 0x20 DUP1 DUP3 MSTORE PUSH1 0x32 SWAP1 DUP3 ADD MSTORE PUSH32 0x4552433732313A207472616E7366657220746F206E6F6E204552433732315265 PUSH1 0x40 DUP3 ADD MSTORE PUSH18 0x31B2B4BB32B91034B6B83632B6B2B73A32B9 PUSH1 0x71 SHL PUSH1 0x60 DUP3 ADD MSTORE PUSH1 0x80 ADD SWAP1 JUMP JUMPDEST PUSH1 0x20 DUP1 DUP3 MSTORE DUP2 DUP2 ADD MSTORE PUSH32 0x4F776E61626C653A2063616C6C6572206973206E6F7420746865206F776E6572 PUSH1 0x40 DUP3 ADD MSTORE PUSH1 0x60 ADD SWAP1 JUMP JUMPDEST PUSH1 0x20 DUP1 DUP3 MSTORE PUSH1 0x31 SWAP1 DUP3 ADD MSTORE PUSH32 0x4552433732313A207472616E736665722063616C6C6572206973206E6F74206F PUSH1 0x40 DUP3 ADD MSTORE PUSH17 0x1DDB995C881B9BDC88185C1C1C9BDD9959 PUSH1 0x7A SHL PUSH1 0x60 DUP3 ADD MSTORE PUSH1 0x80 ADD SWAP1 JUMP JUMPDEST PUSH1 0x0 DUP3 NOT DUP3 GT ISZERO PUSH2 0x1D17 JUMPI PUSH2 0x1D17 PUSH2 0x1DFC JUMP JUMPDEST POP ADD SWAP1 JUMP JUMPDEST PUSH1 0x0 DUP3 PUSH2 0x1D2B JUMPI PUSH2 0x1D2B PUSH2 0x1E12 JUMP JUMPDEST POP DIV SWAP1 JUMP JUMPDEST PUSH1 0x0 DUP2 PUSH1 0x0 NOT DIV DUP4 GT DUP3 ISZERO ISZERO AND ISZERO PUSH2 0x1D4A JUMPI PUSH2 0x1D4A PUSH2 0x1DFC JUMP JUMPDEST POP MUL SWAP1 JUMP JUMPDEST PUSH1 0x0 DUP3 DUP3 LT ISZERO PUSH2 0x1D61 JUMPI PUSH2 0x1D61 PUSH2 0x1DFC JUMP JUMPDEST POP SUB SWAP1 JUMP JUMPDEST PUSH1 0x0 JUMPDEST DUP4 DUP2 LT ISZERO PUSH2 0x1D81 JUMPI DUP2 DUP2 ADD MLOAD DUP4 DUP3 ADD MSTORE PUSH1 0x20 ADD PUSH2 0x1D69 JUMP JUMPDEST DUP4 DUP2 GT ISZERO PUSH2 0xE91 JUMPI POP POP PUSH1 0x0 SWAP2 ADD MSTORE JUMP JUMPDEST PUSH1 0x1 DUP2 DUP2 SHR SWAP1 DUP3 AND DUP1 PUSH2 0x1DA6 JUMPI PUSH1 0x7F DUP3 AND SWAP2 POP JUMPDEST PUSH1 0x20 DUP3 LT DUP2 EQ ISZERO PUSH2 0x1DC7 JUMPI PUSH4 0x4E487B71 PUSH1 0xE0 SHL PUSH1 0x0 MSTORE PUSH1 0x22 PUSH1 0x4 MSTORE PUSH1 0x24 PUSH1 0x0 REVERT JUMPDEST POP SWAP2 SWAP1 POP JUMP JUMPDEST PUSH1 0x0 PUSH1 0x0 NOT DUP3 EQ ISZERO PUSH2 0x1DE1 JUMPI PUSH2 0x1DE1 PUSH2 0x1DFC JUMP JUMPDEST POP PUSH1 0x1 ADD SWAP1 JUMP JUMPDEST PUSH1 0x0 DUP3 PUSH2 0x1DF7 JUMPI PUSH2 0x1DF7 PUSH2 0x1E12 JUMP JUMPDEST POP MOD SWAP1 JUMP JUMPDEST PUSH4 0x4E487B71 PUSH1 0xE0 SHL PUSH1 0x0 MSTORE PUSH1 0x11 PUSH1 0x4 MSTORE PUSH1 0x24 PUSH1 0x0 REVERT JUMPDEST PUSH4 0x4E487B71 PUSH1 0xE0 SHL PUSH1 0x0 MSTORE PUSH1 0x12 PUSH1 0x4 MSTORE PUSH1 0x24 PUSH1 0x0 REVERT JUMPDEST PUSH4 0x4E487B71 PUSH1 0xE0 SHL PUSH1 0x0 MSTORE PUSH1 0x32 PUSH1 0x4 MSTORE PUSH1 0x24 PUSH1 0x0 REVERT JUMPDEST PUSH4 0x4E487B71 PUSH1 0xE0 SHL PUSH1 0x0 MSTORE PUSH1 0x41 PUSH1 0x4 MSTORE PUSH1 0x24 PUSH1 0x0 REVERT JUMPDEST PUSH1 0x1 PUSH1 0x1 PUSH1 0xE0 SHL SUB NOT DUP2 AND DUP2 EQ PUSH2 0x1057 JUMPI PUSH1 0x0 DUP1 REVERT INVALID LOG2 PUSH5 0x6970667358 0x22 SLT KECCAK256 PUSH26 0x340262A8AF99F27C43CB6D54215B617CEAD05A492C7E5D015F82 DUP14 SWAP6 SWAP9 SELFDESTRUCT 0xD0 PUSH5 0x736F6C6343 STOP ADDMOD SMOD STOP CALLER GASLIMIT MSTORE NUMBER CALLDATACOPY ORIGIN BALANCE GASPRICE KECCAK256 PUSH21 0x72616E7366657220746F206E6F6E20455243373231 MSTORE PUSH6 0x0 "
		},
		"gasEstimates": {
			"creation": {
				"codeDepositCost": "1568000",
				"executionCost": "infinite",
				"totalCost": "infinite"
			},
			"external": {
				"approve(address,uint256)": "infinite",
				"balanceOf(address)": "2679",
				"baseExtension()": "infinite",
				"baseURI()": "infinite",
				"cost()": "2363",
				"freeSupply()": "2363",
				"getApproved(uint256)": "4805",
				"giveaway()": "2480",
				"isApprovedForAll(address,address)": "infinite",
				"maxMintAmount()": "2407",
				"maxSupply()": "2339",
				"mint(address,uint256)": "infinite",
				"mintFree(address,uint256)": "infinite",
				"name()": "infinite",
				"owner()": "2398",
				"ownerOf(uint256)": "2602",
				"pause(bool)": "26738",
				"paused()": "2410",
				"renounceOwnership()": "28229",
				"safeTransferFrom(address,address,uint256)": "infinite",
				"safeTransferFrom(address,address,uint256,bytes)": "infinite",
				"setApprovalForAll(address,bool)": "infinite",
				"setBaseExtension(string)": "infinite",
				"setBaseURI(string)": "infinite",
				"setCost(uint256)": "24531",
				"setmaxMintAmount(uint256)": "24509",
				"supportsInterface(bytes4)": "557",
				"symbol()": "infinite",
				"tokenURI(uint256)": "infinite",
				"totalSupply()": "2420",
				"transferFrom(address,address,uint256)": "infinite",
				"transferOwnership(address)": "28422",
				"withdraw()": "infinite"
			},
			"internal": {
				"_baseURI()": "infinite"
			}
		},
		"methodIdentifiers": {
			"approve(address,uint256)": "095ea7b3",
			"balanceOf(address)": "70a08231",
			"baseExtension()": "c6682862",
			"baseURI()": "6c0360eb",
			"cost()": "13faede6",
			"freeSupply()": "24a6ab0c",
			"getApproved(uint256)": "081812fc",
			"giveaway()": "f9850b72",
			"isApprovedForAll(address,address)": "e985e9c5",
			"maxMintAmount()": "239c70ae",
			"maxSupply()": "d5abeb01",
			"mint(address,uint256)": "40c10f19",
			"mintFree(address,uint256)": "adf66d31",
			"name()": "06fdde03",
			"owner()": "8da5cb5b",
			"ownerOf(uint256)": "6352211e",
			"pause(bool)": "02329a29",
			"paused()": "5c975abb",
			"renounceOwnership()": "715018a6",
			"safeTransferFrom(address,address,uint256)": "42842e0e",
			"safeTransferFrom(address,address,uint256,bytes)": "b88d4fde",
			"setApprovalForAll(address,bool)": "a22cb465",
			"setBaseExtension(string)": "da3ef23f",
			"setBaseURI(string)": "55f804b3",
			"setCost(uint256)": "44a0d68a",
			"setmaxMintAmount(uint256)": "7f00c7a6",
			"supportsInterface(bytes4)": "01ffc9a7",
			"symbol()": "95d89b41",
			"tokenURI(uint256)": "c87b56dd",
			"totalSupply()": "18160ddd",
			"transferFrom(address,address,uint256)": "23b872dd",
			"transferOwnership(address)": "f2fde38b",
			"withdraw()": "3ccfd60b"
		}
	},
	"abi": [
		{
			"inputs": [
				{
					"internalType": "string",
					"name": "_name",
					"type": "string"
				},
				{
					"internalType": "string",
					"name": "_symbol",
					"type": "string"
				},
				{
					"internalType": "string",
					"name": "_initBaseURI",
					"type": "string"
				}
			],
			"stateMutability": "nonpayable",
			"type": "constructor"
		},
		{
			"anonymous": false,
			"inputs": [
				{
					"indexed": true,
					"internalType": "address",
					"name": "owner",
					"type": "address"
				},
				{
					"indexed": true,
					"internalType": "address",
					"name": "approved",
					"type": "address"
				},
				{
					"indexed": true,
					"internalType": "uint256",
					"name": "tokenId",
					"type": "uint256"
				}
			],
			"name": "Approval",
			"type": "event"
		},
		{
			"anonymous": false,
			"inputs": [
				{
					"indexed": true,
					"internalType": "address",
					"name": "owner",
					"type": "address"
				},
				{
					"indexed": true,
					"internalType": "address",
					"name": "operator",
					"type": "address"
				},
				{
					"indexed": false,
					"internalType": "bool",
					"name": "approved",
					"type": "bool"
				}
			],
			"name": "ApprovalForAll",
			"type": "event"
		},
		{
			"anonymous": false,
			"inputs": [
				{
					"indexed": true,
					"internalType": "address",
					"name": "previousOwner",
					"type": "address"
				},
				{
					"indexed": true,
					"internalType": "address",
					"name": "newOwner",
					"type": "address"
				}
			],
			"name": "OwnershipTransferred",
			"type": "event"
		},
		{
			"anonymous": false,
			"inputs": [
				{
					"indexed": true,
					"internalType": "address",
					"name": "from",
					"type": "address"
				},
				{
					"indexed": true,
					"internalType": "address",
					"name": "to",
					"type": "address"
				},
				{
					"indexed": true,
					"internalType": "uint256",
					"name": "tokenId",
					"type": "uint256"
				}
			],
			"name": "Transfer",
			"type": "event"
		},
		{
			"inputs": [
				{
					"internalType": "address",
					"name": "to",
					"type": "address"
				},
				{
					"internalType": "uint256",
					"name": "tokenId",
					"type": "uint256"
				}
			],
			"name": "approve",
			"outputs": [],
			"stateMutability": "nonpayable",
			"type": "function"
		},
		{
			"inputs": [
				{
					"internalType": "address",
					"name": "owner",
					"type": "address"
				}
			],
			"name": "balanceOf",
			"outputs": [
				{
					"internalType": "uint256",
					"name": "",
					"type": "uint256"
				}
			],
			"stateMutability": "view",
			"type": "function"
		},
		{
			"inputs": [],
			"name": "baseExtension",
			"outputs": [
				{
					"internalType": "string",
					"name": "",
					"type": "string"
				}
			],
			"stateMutability": "view",
			"type": "function"
		},
		{
			"inputs": [],
			"name": "baseURI",
			"outputs": [
				{
					"internalType": "string",
					"name": "",
					"type": "string"
				}
			],
			"stateMutability": "view",
			"type": "function"
		},
		{
			"inputs": [],
			"name": "cost",
			"outputs": [
				{
					"internalType": "uint256",
					"name": "",
					"type": "uint256"
				}
			],
			"stateMutability": "view",
			"type": "function"
		},
		{
			"inputs": [],
			"name": "freeSupply",
			"outputs": [
				{
					"internalType": "uint256",
					"name": "",
					"type": "uint256"
				}
			],
			"stateMutability": "view",
			"type": "function"
		},
		{
			"inputs": [
				{
					"internalType": "uint256",
					"name": "tokenId",
					"type": "uint256"
				}
			],
			"name": "getApproved",
			"outputs": [
				{
					"internalType": "address",
					"name": "",
					"type": "address"
				}
			],
			"stateMutability": "view",
			"type": "function"
		},
		{
			"inputs": [],
			"name": "giveaway",
			"outputs": [
				{
					"internalType": "address",
					"name": "",
					"type": "address"
				}
			],
			"stateMutability": "view",
			"type": "function"
		},
		{
			"inputs": [
				{
					"internalType": "address",
					"name": "owner",
					"type": "address"
				},
				{
					"internalType": "address",
					"name": "operator",
					"type": "address"
				}
			],
			"name": "isApprovedForAll",
			"outputs": [
				{
					"internalType": "bool",
					"name": "",
					"type": "bool"
				}
			],
			"stateMutability": "view",
			"type": "function"
		},
		{
			"inputs": [],
			"name": "maxMintAmount",
			"outputs": [
				{
					"internalType": "uint256",
					"name": "",
					"type": "uint256"
				}
			],
			"stateMutability": "view",
			"type": "function"
		},
		{
			"inputs": [],
			"name": "maxSupply",
			"outputs": [
				{
					"internalType": "uint256",
					"name": "",
					"type": "uint256"
				}
			],
			"stateMutability": "view",
			"type": "function"
		},
		{
			"inputs": [
				{
					"internalType": "address",
					"name": "_to",
					"type": "address"
				},
				{
					"internalType": "uint256",
					"name": "_mintAmount",
					"type": "uint256"
				}
			],
			"name": "mint",
			"outputs": [],
			"stateMutability": "payable",
			"type": "function"
		},
		{
			"inputs": [
				{
					"internalType": "address",
					"name": "_to",
					"type": "address"
				},
				{
					"internalType": "uint256",
					"name": "_mintAmount",
					"type": "uint256"
				}
			],
			"name": "mintFree",
			"outputs": [],
			"stateMutability": "payable",
			"type": "function"
		},
		{
			"inputs": [],
			"name": "name",
			"outputs": [
				{
					"internalType": "string",
					"name": "",
					"type": "string"
				}
			],
			"stateMutability": "view",
			"type": "function"
		},
		{
			"inputs": [],
			"name": "owner",
			"outputs": [
				{
					"internalType": "address",
					"name": "",
					"type": "address"
				}
			],
			"stateMutability": "view",
			"type": "function"
		},
		{
			"inputs": [
				{
					"internalType": "uint256",
					"name": "tokenId",
					"type": "uint256"
				}
			],
			"name": "ownerOf",
			"outputs": [
				{
					"internalType": "address",
					"name": "",
					"type": "address"
				}
			],
			"stateMutability": "view",
			"type": "function"
		},
		{
			"inputs": [
				{
					"internalType": "bool",
					"name": "_state",
					"type": "bool"
				}
			],
			"name": "pause",
			"outputs": [],
			"stateMutability": "nonpayable",
			"type": "function"
		},
		{
			"inputs": [],
			"name": "paused",
			"outputs": [
				{
					"internalType": "bool",
					"name": "",
					"type": "bool"
				}
			],
			"stateMutability": "view",
			"type": "function"
		},
		{
			"inputs": [],
			"name": "renounceOwnership",
			"outputs": [],
			"stateMutability": "nonpayable",
			"type": "function"
		},
		{
			"inputs": [
				{
					"internalType": "address",
					"name": "from",
					"type": "address"
				},
				{
					"internalType": "address",
					"name": "to",
					"type": "address"
				},
				{
					"internalType": "uint256",
					"name": "tokenId",
					"type": "uint256"
				}
			],
			"name": "safeTransferFrom",
			"outputs": [],
			"stateMutability": "nonpayable",
			"type": "function"
		},
		{
			"inputs": [
				{
					"internalType": "address",
					"name": "from",
					"type": "address"
				},
				{
					"internalType": "address",
					"name": "to",
					"type": "address"
				},
				{
					"internalType": "uint256",
					"name": "tokenId",
					"type": "uint256"
				},
				{
					"internalType": "bytes",
					"name": "_data",
					"type": "bytes"
				}
			],
			"name": "safeTransferFrom",
			"outputs": [],
			"stateMutability": "nonpayable",
			"type": "function"
		},
		{
			"inputs": [
				{
					"internalType": "address",
					"name": "operator",
					"type": "address"
				},
				{
					"internalType": "bool",
					"name": "approved",
					"type": "bool"
				}
			],
			"name": "setApprovalForAll",
			"outputs": [],
			"stateMutability": "nonpayable",
			"type": "function"
		},
		{
			"inputs": [
				{
					"internalType": "string",
					"name": "_newBaseExtension",
					"type": "string"
				}
			],
			"name": "setBaseExtension",
			"outputs": [],
			"stateMutability": "nonpayable",
			"type": "function"
		},
		{
			"inputs": [
				{
					"internalType": "string",
					"name": "_newBaseURI",
					"type": "string"
				}
			],
			"name": "setBaseURI",
			"outputs": [],
			"stateMutability": "nonpayable",
			"type": "function"
		},
		{
			"inputs": [
				{
					"internalType": "uint256",
					"name": "_newCost",
					"type": "uint256"
				}
			],
			"name": "setCost",
			"outputs": [],
			"stateMutability": "nonpayable",
			"type": "function"
		},
		{
			"inputs": [
				{
					"internalType": "uint256",
					"name": "_newmaxMintAmount",
					"type": "uint256"
				}
			],
			"name": "setmaxMintAmount",
			"outputs": [],
			"stateMutability": "nonpayable",
			"type": "function"
		},
		{
			"inputs": [
				{
					"internalType": "bytes4",
					"name": "interfaceId",
					"type": "bytes4"
				}
			],
			"name": "supportsInterface",
			"outputs": [
				{
					"internalType": "bool",
					"name": "",
					"type": "bool"
				}
			],
			"stateMutability": "view",
			"type": "function"
		},
		{
			"inputs": [],
			"name": "symbol",
			"outputs": [
				{
					"internalType": "string",
					"name": "",
					"type": "string"
				}
			],
			"stateMutability": "view",
			"type": "function"
		},
		{
			"inputs": [
				{
					"internalType": "uint256",
					"name": "tokenId",
					"type": "uint256"
				}
			],
			"name": "tokenURI",
			"outputs": [
				{
					"internalType": "string",
					"name": "",
					"type": "string"
				}
			],
			"stateMutability": "view",
			"type": "function"
		},
		{
			"inputs": [],
			"name": "totalSupply",
			"outputs": [
				{
					"internalType": "uint256",
					"name": "",
					"type": "uint256"
				}
			],
			"stateMutability": "view",
			"type": "function"
		},
		{
			"inputs": [
				{
					"internalType": "address",
					"name": "from",
					"type": "address"
				},
				{
					"internalType": "address",
					"name": "to",
					"type": "address"
				},
				{
					"internalType": "uint256",
					"name": "tokenId",
					"type": "uint256"
				}
			],
			"name": "transferFrom",
			"outputs": [],
			"stateMutability": "nonpayable",
			"type": "function"
		},
		{
			"inputs": [
				{
					"internalType": "address",
					"name": "newOwner",
					"type": "address"
				}
			],
			"name": "transferOwnership",
			"outputs": [],
			"stateMutability": "nonpayable",
			"type": "function"
		},
		{
			"inputs": [],
			"name": "withdraw",
			"outputs": [],
			"stateMutability": "payable",
			"type": "function"
		}
	]
}