{
  "contractName": "DoodleRawrs",
  "abi": [
    {
      "inputs": [
        {
          "internalType": "string",
          "name": "_name",
          "type": "string"
        },
        {
          "internalType": "string",
          "name": "_symbol",
          "type": "string"
        },
        {
          "internalType": "string",
          "name": "_initBaseURI",
          "type": "string"
        }
      ],
      "stateMutability": "nonpayable",
      "type": "constructor"
    },
    {
      "anonymous": false,
      "inputs": [
        {
          "indexed": true,
          "internalType": "address",
          "name": "owner",
          "type": "address"
        },
        {
          "indexed": true,
          "internalType": "address",
          "name": "approved",
          "type": "address"
        },
        {
          "indexed": true,
          "internalType": "uint256",
          "name": "tokenId",
          "type": "uint256"
        }
      ],
      "name": "Approval",
      "type": "event"
    },
    {
      "anonymous": false,
      "inputs": [
        {
          "indexed": true,
          "internalType": "address",
          "name": "owner",
          "type": "address"
        },
        {
          "indexed": true,
          "internalType": "address",
          "name": "operator",
          "type": "address"
        },
        {
          "indexed": false,
          "internalType": "bool",
          "name": "approved",
          "type": "bool"
        }
      ],
      "name": "ApprovalForAll",
      "type": "event"
    },
    {
      "anonymous": false,
      "inputs": [
        {
          "indexed": true,
          "internalType": "address",
          "name": "previousOwner",
          "type": "address"
        },
        {
          "indexed": true,
          "internalType": "address",
          "name": "newOwner",
          "type": "address"
        }
      ],
      "name": "OwnershipTransferred",
      "type": "event"
    },
    {
      "anonymous": false,
      "inputs": [
        {
          "indexed": true,
          "internalType": "address",
          "name": "from",
          "type": "address"
        },
        {
          "indexed": true,
          "internalType": "address",
          "name": "to",
          "type": "address"
        },
        {
          "indexed": true,
          "internalType": "uint256",
          "name": "tokenId",
          "type": "uint256"
        }
      ],
      "name": "Transfer",
      "type": "event"
    },
    {
      "inputs": [
        {
          "internalType": "address",
          "name": "to",
          "type": "address"
        },
        {
          "internalType": "uint256",
          "name": "tokenId",
          "type": "uint256"
        }
      ],
      "name": "approve",
      "outputs": [],
      "stateMutability": "nonpayable",
      "type": "function"
    },
    {
      "inputs": [
        {
          "internalType": "address",
          "name": "owner",
          "type": "address"
        }
      ],
      "name": "balanceOf",
      "outputs": [
        {
          "internalType": "uint256",
          "name": "",
          "type": "uint256"
        }
      ],
      "stateMutability": "view",
      "type": "function",
      "constant": true
    },
    {
      "inputs": [],
      "name": "baseExtension",
      "outputs": [
        {
          "internalType": "string",
          "name": "",
          "type": "string"
        }
      ],
      "stateMutability": "view",
      "type": "function",
      "constant": true
    },
    {
      "inputs": [],
      "name": "baseURI",
      "outputs": [
        {
          "internalType": "string",
          "name": "",
          "type": "string"
        }
      ],
      "stateMutability": "view",
      "type": "function",
      "constant": true
    },
    {
      "inputs": [],
      "name": "cost",
      "outputs": [
        {
          "internalType": "uint256",
          "name": "",
          "type": "uint256"
        }
      ],
      "stateMutability": "view",
      "type": "function",
      "constant": true
    },
    {
      "inputs": [],
      "name": "freeSupply",
      "outputs": [
        {
          "internalType": "uint256",
          "name": "",
          "type": "uint256"
        }
      ],
      "stateMutability": "view",
      "type": "function",
      "constant": true
    },
    {
      "inputs": [
        {
          "internalType": "uint256",
          "name": "tokenId",
          "type": "uint256"
        }
      ],
      "name": "getApproved",
      "outputs": [
        {
          "internalType": "address",
          "name": "",
          "type": "address"
        }
      ],
      "stateMutability": "view",
      "type": "function",
      "constant": true
    },
    {
      "inputs": [
        {
          "internalType": "address",
          "name": "owner",
          "type": "address"
        },
        {
          "internalType": "address",
          "name": "operator",
          "type": "address"
        }
      ],
      "name": "isApprovedForAll",
      "outputs": [
        {
          "internalType": "bool",
          "name": "",
          "type": "bool"
        }
      ],
      "stateMutability": "view",
      "type": "function",
      "constant": true
    },
    {
      "inputs": [],
      "name": "maxMintAmount",
      "outputs": [
        {
          "internalType": "uint256",
          "name": "",
          "type": "uint256"
        }
      ],
      "stateMutability": "view",
      "type": "function",
      "constant": true
    },
    {
      "inputs": [],
      "name": "maxSupply",
      "outputs": [
        {
          "internalType": "uint256",
          "name": "",
          "type": "uint256"
        }
      ],
      "stateMutability": "view",
      "type": "function",
      "constant": true
    },
    {
      "inputs": [],
      "name": "name",
      "outputs": [
        {
          "internalType": "string",
          "name": "",
          "type": "string"
        }
      ],
      "stateMutability": "view",
      "type": "function",
      "constant": true
    },
    {
      "inputs": [],
      "name": "owner",
      "outputs": [
        {
          "internalType": "address",
          "name": "",
          "type": "address"
        }
      ],
      "stateMutability": "view",
      "type": "function",
      "constant": true
    },
    {
      "inputs": [
        {
          "internalType": "uint256",
          "name": "tokenId",
          "type": "uint256"
        }
      ],
      "name": "ownerOf",
      "outputs": [
        {
          "internalType": "address",
          "name": "",
          "type": "address"
        }
      ],
      "stateMutability": "view",
      "type": "function",
      "constant": true
    },
    {
      "inputs": [],
      "name": "paused",
      "outputs": [
        {
          "internalType": "bool",
          "name": "",
          "type": "bool"
        }
      ],
      "stateMutability": "view",
      "type": "function",
      "constant": true
    },
    {
      "inputs": [],
      "name": "renounceOwnership",
      "outputs": [],
      "stateMutability": "nonpayable",
      "type": "function"
    },
    {
      "inputs": [
        {
          "internalType": "address",
          "name": "from",
          "type": "address"
        },
        {
          "internalType": "address",
          "name": "to",
          "type": "address"
        },
        {
          "internalType": "uint256",
          "name": "tokenId",
          "type": "uint256"
        }
      ],
      "name": "safeTransferFrom",
      "outputs": [],
      "stateMutability": "nonpayable",
      "type": "function"
    },
    {
      "inputs": [
        {
          "internalType": "address",
          "name": "from",
          "type": "address"
        },
        {
          "internalType": "address",
          "name": "to",
          "type": "address"
        },
        {
          "internalType": "uint256",
          "name": "tokenId",
          "type": "uint256"
        },
        {
          "internalType": "bytes",
          "name": "_data",
          "type": "bytes"
        }
      ],
      "name": "safeTransferFrom",
      "outputs": [],
      "stateMutability": "nonpayable",
      "type": "function"
    },
    {
      "inputs": [
        {
          "internalType": "address",
          "name": "operator",
          "type": "address"
        },
        {
          "internalType": "bool",
          "name": "approved",
          "type": "bool"
        }
      ],
      "name": "setApprovalForAll",
      "outputs": [],
      "stateMutability": "nonpayable",
      "type": "function"
    },
    {
      "inputs": [
        {
          "internalType": "bytes4",
          "name": "interfaceId",
          "type": "bytes4"
        }
      ],
      "name": "supportsInterface",
      "outputs": [
        {
          "internalType": "bool",
          "name": "",
          "type": "bool"
        }
      ],
      "stateMutability": "view",
      "type": "function",
      "constant": true
    },
    {
      "inputs": [],
      "name": "symbol",
      "outputs": [
        {
          "internalType": "string",
          "name": "",
          "type": "string"
        }
      ],
      "stateMutability": "view",
      "type": "function",
      "constant": true
    },
    {
      "inputs": [
        {
          "internalType": "address",
          "name": "from",
          "type": "address"
        },
        {
          "internalType": "address",
          "name": "to",
          "type": "address"
        },
        {
          "internalType": "uint256",
          "name": "tokenId",
          "type": "uint256"
        }
      ],
      "name": "transferFrom",
      "outputs": [],
      "stateMutability": "nonpayable",
      "type": "function"
    },
    {
      "inputs": [
        {
          "internalType": "address",
          "name": "newOwner",
          "type": "address"
        }
      ],
      "name": "transferOwnership",
      "outputs": [],
      "stateMutability": "nonpayable",
      "type": "function"
    },
    {
      "inputs": [
        {
          "internalType": "address",
          "name": "_to",
          "type": "address"
        },
        {
          "internalType": "uint256",
          "name": "_mintAmount",
          "type": "uint256"
        }
      ],
      "name": "mint",
      "outputs": [],
      "stateMutability": "payable",
      "type": "function",
      "payable": true
    },
    {
      "inputs": [
        {
          "internalType": "address",
          "name": "_to",
          "type": "address"
        },
        {
          "internalType": "uint256",
          "name": "_mintAmount",
          "type": "uint256"
        }
      ],
      "name": "mintFree",
      "outputs": [],
      "stateMutability": "payable",
      "type": "function",
      "payable": true
    },
    {
      "inputs": [
        {
          "internalType": "uint256",
          "name": "tokenId",
          "type": "uint256"
        }
      ],
      "name": "tokenURI",
      "outputs": [
        {
          "internalType": "string",
          "name": "",
          "type": "string"
        }
      ],
      "stateMutability": "view",
      "type": "function",
      "constant": true
    },
    {
      "inputs": [
        {
          "internalType": "uint256",
          "name": "_newCost",
          "type": "uint256"
        }
      ],
      "name": "setCost",
      "outputs": [],
      "stateMutability": "nonpayable",
      "type": "function"
    },
    {
      "inputs": [
        {
          "internalType": "uint256",
          "name": "_newmaxMintAmount",
          "type": "uint256"
        }
      ],
      "name": "setmaxMintAmount",
      "outputs": [],
      "stateMutability": "nonpayable",
      "type": "function"
    },
    {
      "inputs": [
        {
          "internalType": "string",
          "name": "_newBaseURI",
          "type": "string"
        }
      ],
      "name": "setBaseURI",
      "outputs": [],
      "stateMutability": "nonpayable",
      "type": "function"
    },
    {
      "inputs": [
        {
          "internalType": "string",
          "name": "_newBaseExtension",
          "type": "string"
        }
      ],
      "name": "setBaseExtension",
      "outputs": [],
      "stateMutability": "nonpayable",
      "type": "function"
    },
    {
      "inputs": [
        {
          "internalType": "bool",
          "name": "_state",
          "type": "bool"
        }
      ],
      "name": "pause",
      "outputs": [],
      "stateMutability": "nonpayable",
      "type": "function"
    },
    {
      "inputs": [],
      "name": "withdraw",
      "outputs": [],
      "stateMutability": "payable",
      "type": "function",
      "payable": true
    },
    {
      "inputs": [],
      "name": "totalSupply",
      "outputs": [
        {
          "internalType": "uint256",
          "name": "",
          "type": "uint256"
        }
      ],
      "stateMutability": "view",
      "type": "function",
      "constant": true
    }
  ],
  "bytecode": "0x60c06040526005608081905264173539b7b760d91b60a0908152620000289160099190620001ad565b5066470de4df820000600a9081556103e8600b55610bb8600c55600d55600e805460ff191690553480156200005c57600080fd5b5060405162002248380380620022488339810160408190526200007f9162000306565b82518390839062000098906000906020850190620001ad565b508051620000ae906001906020840190620001ad565b505050620000cb620000c5620000df60201b60201c565b620000e3565b620000d68162000135565b505050620003e6565b3390565b600680546001600160a01b038381166001600160a01b0319831681179093556040519116919082907f8be0079c531659141344cd1fd0a4f28419497f9722a3daafe3b4186f6b6457e090600090a35050565b6006546001600160a01b03163314620001945760405162461bcd60e51b815260206004820181905260248201527f4f776e61626c653a2063616c6c6572206973206e6f7420746865206f776e6572604482015260640160405180910390fd5b8051620001a9906008906020840190620001ad565b5050565b828054620001bb9062000393565b90600052602060002090601f016020900481019282620001df57600085556200022a565b82601f10620001fa57805160ff19168380011785556200022a565b828001600101855582156200022a579182015b828111156200022a5782518255916020019190600101906200020d565b50620002389291506200023c565b5090565b5b808211156200023857600081556001016200023d565b600082601f83011262000264578081fd5b81516001600160401b0380821115620002815762000281620003d0565b604051601f8301601f19908116603f01168101908282118183101715620002ac57620002ac620003d0565b81604052838152602092508683858801011115620002c8578485fd5b8491505b83821015620002eb5785820183015181830184015290820190620002cc565b83821115620002fc57848385830101525b9695505050505050565b6000806000606084860312156200031b578283fd5b83516001600160401b038082111562000332578485fd5b620003408783880162000253565b9450602086015191508082111562000356578384fd5b620003648783880162000253565b935060408601519150808211156200037a578283fd5b50620003898682870162000253565b9150509250925092565b600181811c90821680620003a857607f821691505b60208210811415620003ca57634e487b7160e01b600052602260045260246000fd5b50919050565b634e487b7160e01b600052604160045260246000fd5b611e5280620003f66000396000f3fe6080604052600436106101e35760003560e01c80636352211e11610102578063adf66d3111610095578063d5abeb0111610064578063d5abeb0114610518578063da3ef23f1461052e578063e985e9c51461054e578063f2fde38b1461059757600080fd5b8063adf66d31146104b0578063b88d4fde146104c3578063c6682862146104e3578063c87b56dd146104f857600080fd5b80637f00c7a6116100d15780637f00c7a61461043d5780638da5cb5b1461045d57806395d89b411461047b578063a22cb4651461049057600080fd5b80636352211e146103d35780636c0360eb146103f357806370a0823114610408578063715018a61461042857600080fd5b806323b872dd1161017a57806342842e0e1161014957806342842e0e1461035957806344a0d68a1461037957806355f804b3146103995780635c975abb146103b957600080fd5b806323b872dd1461030857806324a6ab0c146103285780633ccfd60b1461033e57806340c10f191461034657600080fd5b8063095ea7b3116101b6578063095ea7b31461029957806313faede6146102b957806318160ddd146102dd578063239c70ae146102f257600080fd5b806301ffc9a7146101e857806302329a291461021d57806306fdde031461023f578063081812fc14610261575b600080fd5b3480156101f457600080fd5b50610208610203366004611a20565b6105b7565b60405190151581526020015b60405180910390f35b34801561022957600080fd5b5061023d610238366004611a06565b610609565b005b34801561024b57600080fd5b5061025461064f565b6040516102149190611be1565b34801561026d57600080fd5b5061028161027c366004611a9e565b6106e1565b6040516001600160a01b039091168152602001610214565b3480156102a557600080fd5b5061023d6102b43660046119dd565b610776565b3480156102c557600080fd5b506102cf600a5481565b604051908152602001610214565b3480156102e957600080fd5b506102cf61088c565b3480156102fe57600080fd5b506102cf600d5481565b34801561031457600080fd5b5061023d610323366004611900565b61089c565b34801561033457600080fd5b506102cf600b5481565b61023d6108cd565b61023d6103543660046119dd565b61091d565b34801561036557600080fd5b5061023d610374366004611900565b610a31565b34801561038557600080fd5b5061023d610394366004611a9e565b610a4c565b3480156103a557600080fd5b5061023d6103b4366004611a58565b610a7b565b3480156103c557600080fd5b50600e546102089060ff1681565b3480156103df57600080fd5b506102816103ee366004611a9e565b610abc565b3480156103ff57600080fd5b50610254610b33565b34801561041457600080fd5b506102cf6104233660046118b4565b610bc1565b34801561043457600080fd5b5061023d610c48565b34801561044957600080fd5b5061023d610458366004611a9e565b610c7c565b34801561046957600080fd5b506006546001600160a01b0316610281565b34801561048757600080fd5b50610254610cab565b34801561049c57600080fd5b5061023d6104ab3660046119b4565b610cba565b61023d6104be3660046119dd565b610d7f565b3480156104cf57600080fd5b5061023d6104de36600461193b565b610e2f565b3480156104ef57600080fd5b50610254610e67565b34801561050457600080fd5b50610254610513366004611a9e565b610e74565b34801561052457600080fd5b506102cf600c5481565b34801561053a57600080fd5b5061023d610549366004611a58565b610f52565b34801561055a57600080fd5b506102086105693660046118ce565b6001600160a01b03918216600090815260056020908152604080832093909416825291909152205460ff1690565b3480156105a357600080fd5b5061023d6105b23660046118b4565b610f8f565b60006001600160e01b031982166380ac58cd60e01b14806105e857506001600160e01b03198216635b5e139f60e01b145b8061060357506301ffc9a760e01b6001600160e01b03198316145b92915050565b6006546001600160a01b0316331461063c5760405162461bcd60e51b815260040161063390611c46565b60405180910390fd5b600e805460ff1916911515919091179055565b60606000805461065e90611d5a565b80601f016020809104026020016040519081016040528092919081815260200182805461068a90611d5a565b80156106d75780601f106106ac576101008083540402835291602001916106d7565b820191906000526020600020905b8154815290600101906020018083116106ba57829003601f168201915b5050505050905090565b6000818152600260205260408120546001600160a01b031661075a5760405162461bcd60e51b815260206004820152602c60248201527f4552433732313a20617070726f76656420717565727920666f72206e6f6e657860448201526b34b9ba32b73a103a37b5b2b760a11b6064820152608401610633565b506000908152600460205260409020546001600160a01b031690565b600061078182610abc565b9050806001600160a01b0316836001600160a01b031614156107ef5760405162461bcd60e51b815260206004820152602160248201527f4552433732313a20617070726f76616c20746f2063757272656e74206f776e656044820152603960f91b6064820152608401610633565b336001600160a01b038216148061080b575061080b8133610569565b61087d5760405162461bcd60e51b815260206004820152603860248201527f4552433732313a20617070726f76652063616c6c6572206973206e6f74206f7760448201527f6e6572206e6f7220617070726f76656420666f7220616c6c00000000000000006064820152608401610633565b610887838361102a565b505050565b600061089760075490565b905090565b6108a63382611098565b6108c25760405162461bcd60e51b815260040161063390611c7b565b61088783838361118f565b6006546001600160a01b031633146108f75760405162461bcd60e51b815260040161063390611c46565b60405133904780156108fc02916000818181858888f1935050505061091b57600080fd5b565b3233146109575760405162461bcd60e51b81526020600482015260086024820152674f6e6c7920454f4160c01b6044820152606401610633565b600e5460ff161561096757600080fd5b6000811161097457600080fd5b600c548161098160075490565b61098b9190611ccc565b111561099657600080fd5b600d548111156109a557600080fd5b80600a546109b39190611cf8565b3410156109f55760405162461bcd60e51b815260206004820152601060248201526f2737ba1032b737bab3b41032ba3432b960811b6044820152606401610633565b60015b81811161088757610a0d600780546001019055565b610a1f83610a1a60075490565b61132f565b80610a2981611d95565b9150506109f8565b61088783838360405180602001604052806000815250610e2f565b6006546001600160a01b03163314610a765760405162461bcd60e51b815260040161063390611c46565b600a55565b6006546001600160a01b03163314610aa55760405162461bcd60e51b815260040161063390611c46565b8051610ab8906008906020840190611779565b5050565b6000818152600260205260408120546001600160a01b0316806106035760405162461bcd60e51b815260206004820152602960248201527f4552433732313a206f776e657220717565727920666f72206e6f6e657869737460448201526832b73a103a37b5b2b760b91b6064820152608401610633565b60088054610b4090611d5a565b80601f0160208091040260200160405190810160405280929190818152602001828054610b6c90611d5a565b8015610bb95780601f10610b8e57610100808354040283529160200191610bb9565b820191906000526020600020905b815481529060010190602001808311610b9c57829003601f168201915b505050505081565b60006001600160a01b038216610c2c5760405162461bcd60e51b815260206004820152602a60248201527f4552433732313a2062616c616e636520717565727920666f7220746865207a65604482015269726f206164647265737360b01b6064820152608401610633565b506001600160a01b031660009081526003602052604090205490565b6006546001600160a01b03163314610c725760405162461bcd60e51b815260040161063390611c46565b61091b6000611349565b6006546001600160a01b03163314610ca65760405162461bcd60e51b815260040161063390611c46565b600d55565b60606001805461065e90611d5a565b6001600160a01b038216331415610d135760405162461bcd60e51b815260206004820152601960248201527f4552433732313a20617070726f766520746f2063616c6c6572000000000000006044820152606401610633565b3360008181526005602090815260408083206001600160a01b03871680855290835292819020805460ff191686151590811790915590519081529192917f17307eab39ab6107e8899845ad3d59bd9653f200f220920489ca2b5937696c31910160405180910390a35050565b323314610db95760405162461bcd60e51b81526020600482015260086024820152674f6e6c7920454f4160c01b6044820152606401610633565b600e5460ff1615610dc957600080fd5b60008111610dd657600080fd5b600b5481610de360075490565b610ded9190611ccc565b1115610df857600080fd5b60015b81811161088757610e10600780546001019055565b610e1d83610a1a60075490565b80610e2781611d95565b915050610dfb565b610e393383611098565b610e555760405162461bcd60e51b815260040161063390611c7b565b610e618484848461139b565b50505050565b60098054610b4090611d5a565b6000818152600260205260409020546060906001600160a01b0316610ef35760405162461bcd60e51b815260206004820152602f60248201527f4552433732314d657461646174613a2055524920717565727920666f72206e6f60448201526e3732bc34b9ba32b73a103a37b5b2b760891b6064820152608401610633565b6000610efd6113ce565b90506000815111610f1d5760405180602001604052806000815250610f4b565b80610f27846113dd565b6009604051602001610f3b93929190611ae2565b6040516020818303038152906040525b9392505050565b6006546001600160a01b03163314610f7c5760405162461bcd60e51b815260040161063390611c46565b8051610ab8906009906020840190611779565b6006546001600160a01b03163314610fb95760405162461bcd60e51b815260040161063390611c46565b6001600160a01b03811661101e5760405162461bcd60e51b815260206004820152602660248201527f4f776e61626c653a206e6577206f776e657220697320746865207a65726f206160448201526564647265737360d01b6064820152608401610633565b61102781611349565b50565b600081815260046020526040902080546001600160a01b0319166001600160a01b038416908117909155819061105f82610abc565b6001600160a01b03167f8c5be1e5ebec7d5bd14f71427d1e84f3dd0314c0f7b2291e5b200ac8c7c3b92560405160405180910390a45050565b6000818152600260205260408120546001600160a01b03166111115760405162461bcd60e51b815260206004820152602c60248201527f4552433732313a206f70657261746f7220717565727920666f72206e6f6e657860448201526b34b9ba32b73a103a37b5b2b760a11b6064820152608401610633565b600061111c83610abc565b9050806001600160a01b0316846001600160a01b031614806111575750836001600160a01b031661114c846106e1565b6001600160a01b0316145b8061118757506001600160a01b0380821660009081526005602090815260408083209388168352929052205460ff165b949350505050565b826001600160a01b03166111a282610abc565b6001600160a01b03161461120a5760405162461bcd60e51b815260206004820152602960248201527f4552433732313a207472616e73666572206f6620746f6b656e2074686174206960448201526839903737ba1037bbb760b91b6064820152608401610633565b6001600160a01b03821661126c5760405162461bcd60e51b8152602060048201526024808201527f4552433732313a207472616e7366657220746f20746865207a65726f206164646044820152637265737360e01b6064820152608401610633565b61127760008261102a565b6001600160a01b03831660009081526003602052604081208054600192906112a0908490611d17565b90915550506001600160a01b03821660009081526003602052604081208054600192906112ce908490611ccc565b909155505060008181526002602052604080822080546001600160a01b0319166001600160a01b0386811691821790925591518493918716917fddf252ad1be2c89b69c2b068fc378daa952ba7f163c4a11628f55a4df523b3ef91a4505050565b610ab88282604051806020016040528060008152506114f7565b600680546001600160a01b038381166001600160a01b0319831681179093556040519116919082907f8be0079c531659141344cd1fd0a4f28419497f9722a3daafe3b4186f6b6457e090600090a35050565b6113a684848461118f565b6113b28484848461152a565b610e615760405162461bcd60e51b815260040161063390611bf4565b60606008805461065e90611d5a565b6060816114015750506040805180820190915260018152600360fc1b602082015290565b8160005b811561142b578061141581611d95565b91506114249050600a83611ce4565b9150611405565b60008167ffffffffffffffff81111561145457634e487b7160e01b600052604160045260246000fd5b6040519080825280601f01601f19166020018201604052801561147e576020820181803683370190505b5090505b841561118757611493600183611d17565b91506114a0600a86611db0565b6114ab906030611ccc565b60f81b8183815181106114ce57634e487b7160e01b600052603260045260246000fd5b60200101906001600160f81b031916908160001a9053506114f0600a86611ce4565b9450611482565b6115018383611637565b61150e600084848461152a565b6108875760405162461bcd60e51b815260040161063390611bf4565b60006001600160a01b0384163b1561162c57604051630a85bd0160e11b81526001600160a01b0385169063150b7a029061156e903390899088908890600401611ba4565b602060405180830381600087803b15801561158857600080fd5b505af19250505080156115b8575060408051601f3d908101601f191682019092526115b591810190611a3c565b60015b611612573d8080156115e6576040519150601f19603f3d011682016040523d82523d6000602084013e6115eb565b606091505b50805161160a5760405162461bcd60e51b815260040161063390611bf4565b805181602001fd5b6001600160e01b031916630a85bd0160e11b149050611187565b506001949350505050565b6001600160a01b03821661168d5760405162461bcd60e51b815260206004820181905260248201527f4552433732313a206d696e7420746f20746865207a65726f20616464726573736044820152606401610633565b6000818152600260205260409020546001600160a01b0316156116f25760405162461bcd60e51b815260206004820152601c60248201527f4552433732313a20746f6b656e20616c7265616479206d696e746564000000006044820152606401610633565b6001600160a01b038216600090815260036020526040812080546001929061171b908490611ccc565b909155505060008181526002602052604080822080546001600160a01b0319166001600160a01b03861690811790915590518392907fddf252ad1be2c89b69c2b068fc378daa952ba7f163c4a11628f55a4df523b3ef908290a45050565b82805461178590611d5a565b90600052602060002090601f0160209004810192826117a757600085556117ed565b82601f106117c057805160ff19168380011785556117ed565b828001600101855582156117ed579182015b828111156117ed5782518255916020019190600101906117d2565b506117f99291506117fd565b5090565b5b808211156117f957600081556001016117fe565b600067ffffffffffffffff8084111561182d5761182d611df0565b604051601f8501601f19908116603f0116810190828211818310171561185557611855611df0565b8160405280935085815286868601111561186e57600080fd5b858560208301376000602087830101525050509392505050565b80356001600160a01b038116811461189f57600080fd5b919050565b8035801515811461189f57600080fd5b6000602082840312156118c5578081fd5b610f4b82611888565b600080604083850312156118e0578081fd5b6118e983611888565b91506118f760208401611888565b90509250929050565b600080600060608486031215611914578081fd5b61191d84611888565b925061192b60208501611888565b9150604084013590509250925092565b60008060008060808587031215611950578081fd5b61195985611888565b935061196760208601611888565b925060408501359150606085013567ffffffffffffffff811115611989578182fd5b8501601f81018713611999578182fd5b6119a887823560208401611812565b91505092959194509250565b600080604083850312156119c6578182fd5b6119cf83611888565b91506118f7602084016118a4565b600080604083850312156119ef578182fd5b6119f883611888565b946020939093013593505050565b600060208284031215611a17578081fd5b610f4b826118a4565b600060208284031215611a31578081fd5b8135610f4b81611e06565b600060208284031215611a4d578081fd5b8151610f4b81611e06565b600060208284031215611a69578081fd5b813567ffffffffffffffff811115611a7f578182fd5b8201601f81018413611a8f578182fd5b61118784823560208401611812565b600060208284031215611aaf578081fd5b5035919050565b60008151808452611ace816020860160208601611d2e565b601f01601f19169290920160200192915050565b600084516020611af58285838a01611d2e565b855191840191611b088184848a01611d2e565b85549201918390600181811c9080831680611b2457607f831692505b858310811415611b4257634e487b7160e01b88526022600452602488fd5b808015611b565760018114611b6757611b93565b60ff19851688528388019550611b93565b60008b815260209020895b85811015611b8b5781548a820152908401908801611b72565b505083880195505b50939b9a5050505050505050505050565b6001600160a01b0385811682528416602082015260408101839052608060608201819052600090611bd790830184611ab6565b9695505050505050565b602081526000610f4b6020830184611ab6565b60208082526032908201527f4552433732313a207472616e7366657220746f206e6f6e20455243373231526560408201527131b2b4bb32b91034b6b83632b6b2b73a32b960711b606082015260800190565b6020808252818101527f4f776e61626c653a2063616c6c6572206973206e6f7420746865206f776e6572604082015260600190565b60208082526031908201527f4552433732313a207472616e736665722063616c6c6572206973206e6f74206f6040820152701ddb995c881b9bdc88185c1c1c9bdd9959607a1b606082015260800190565b60008219821115611cdf57611cdf611dc4565b500190565b600082611cf357611cf3611dda565b500490565b6000816000190483118215151615611d1257611d12611dc4565b500290565b600082821015611d2957611d29611dc4565b500390565b60005b83811015611d49578181015183820152602001611d31565b83811115610e615750506000910152565b600181811c90821680611d6e57607f821691505b60208210811415611d8f57634e487b7160e01b600052602260045260246000fd5b50919050565b6000600019821415611da957611da9611dc4565b5060010190565b600082611dbf57611dbf611dda565b500690565b634e487b7160e01b600052601160045260246000fd5b634e487b7160e01b600052601260045260246000fd5b634e487b7160e01b600052604160045260246000fd5b6001600160e01b03198116811461102757600080fdfea264697066735822122096b6abcfb397ae7e8dd1ea7434ae86ccaab185271a0ac23f2597395d858f98aa64736f6c63430008040033",
  "immutableReferences": {},
  "source": "\n// SPDX-License-Identifier: GPL-3.0\n\npragma solidity ^0.8.0;\n\nimport \"@openzeppelin/contracts/token/ERC721/ERC721.sol\";\nimport \"@openzeppelin/contracts/access/Ownable.sol\";\nimport \"@openzeppelin/contracts/utils/Counters.sol\";\n\ncontract DoodleRawrs is ERC721, Ownable {\n    using Strings for uint256;\n    using Counters for Counters.Counter;\n\n    // Low Gas Implementation\n    Counters.Counter private _tokensMinted;\n\n    string public baseURI;\n    string public baseExtension = \".json\";\n    uint256 public cost = 0.02 ether;\n    uint256 public freeSupply = 1000;\n    uint256 public maxSupply = 3000;\n    uint256 public maxMintAmount = 10;\n    bool public paused = false;\n\n    constructor(\n        string memory _name,\n        string memory _symbol,\n        string memory _initBaseURI\n    ) ERC721(_name, _symbol) {\n        setBaseURI(_initBaseURI);\n    }\n\n    function _baseURI() internal view virtual override returns (string memory) {\n        return baseURI;\n    }\n\n    // Public Mint Functions\n    function mint(address _to, uint256 _mintAmount) public payable {\n        require(tx.origin == _msgSender(), \"Only EOA\");\n        require(!paused);\n        require(_mintAmount > 0);\n        require(_tokensMinted.current() + _mintAmount <= maxSupply);\n\n        require(_mintAmount <= maxMintAmount);\n        require(msg.value >= cost * _mintAmount, \"Not enough ether\");\n\n        for (uint256 i = 1; i <= _mintAmount; i++) {\n            _tokensMinted.increment();\n            _safeMint(_to, _tokensMinted.current());\n        }\n    }\n\n    function mintFree(address _to, uint256 _mintAmount) public payable {\n        require(tx.origin == _msgSender(), \"Only EOA\");\n        require(!paused);\n        require(_mintAmount > 0);\n        require(_tokensMinted.current() + _mintAmount <= freeSupply);\n\n        for (uint256 i = 1; i <= _mintAmount; i++) {\n            _tokensMinted.increment();\n            _safeMint(_to, _tokensMinted.current());\n        }\n    }\n\n    function tokenURI(uint256 tokenId)\n        public\n        view\n        virtual\n        override\n        returns (string memory)\n    {\n        require(\n        _exists(tokenId),\n        \"ERC721Metadata: URI query for nonexistent token\"\n        );\n\n        string memory currentBaseURI = _baseURI();\n        return bytes(currentBaseURI).length > 0\n            ? string(abi.encodePacked(currentBaseURI, tokenId.toString(), baseExtension))\n            : \"\";\n    }\n\n    //only owner\n    function setCost(uint256 _newCost) public onlyOwner() {\n        cost = _newCost;\n    }\n\n    function setmaxMintAmount(uint256 _newmaxMintAmount) public onlyOwner() {\n        maxMintAmount = _newmaxMintAmount;\n    }\n\n    function setBaseURI(string memory _newBaseURI) public onlyOwner {\n        baseURI = _newBaseURI;\n    }\n\n    function setBaseExtension(string memory _newBaseExtension) public onlyOwner {\n        baseExtension = _newBaseExtension;\n    }\n\n    function pause(bool _state) public onlyOwner {\n        paused = _state;\n    }\n\n    function withdraw() public payable onlyOwner {\n        require(payable(msg.sender).send(address(this).balance));\n    }\n\n    function totalSupply() public view returns (uint256) {\n        return _tokensMinted.current();\n    }\n}",
  "sourcePath": "C:\\Users\\dbart\\Desktop\\DoodleRawrs\\DoodleRawrsFrontend\\contracts\\SmartContract.sol",
  "compiler": {
    "name": "solc",
    "version": "0.8.4+commit.c7e474f2.Emscripten.clang"
  },
  "schemaVersion": "3.4.3",
  "updatedAt": "2022-01-17T17:28:20.381Z",
  "networkType": "ethereum",
  "devdoc": {
    "kind": "dev",
    "methods": {
      "approve(address,uint256)": {
        "details": "See {IERC721-approve}."
      },
      "balanceOf(address)": {
        "details": "See {IERC721-balanceOf}."
      },
      "getApproved(uint256)": {
        "details": "See {IERC721-getApproved}."
      },
      "isApprovedForAll(address,address)": {
        "details": "See {IERC721-isApprovedForAll}."
      },
      "name()": {
        "details": "See {IERC721Metadata-name}."
      },
      "owner()": {
        "details": "Returns the address of the current owner."
      },
      "ownerOf(uint256)": {
        "details": "See {IERC721-ownerOf}."
      },
      "renounceOwnership()": {
        "details": "Leaves the contract without owner. It will not be possible to call `onlyOwner` functions anymore. Can only be called by the current owner. NOTE: Renouncing ownership will leave the contract without an owner, thereby removing any functionality that is only available to the owner."
      },
      "safeTransferFrom(address,address,uint256)": {
        "details": "See {IERC721-safeTransferFrom}."
      },
      "safeTransferFrom(address,address,uint256,bytes)": {
        "details": "See {IERC721-safeTransferFrom}."
      },
      "setApprovalForAll(address,bool)": {
        "details": "See {IERC721-setApprovalForAll}."
      },
      "supportsInterface(bytes4)": {
        "details": "See {IERC165-supportsInterface}."
      },
      "symbol()": {
        "details": "See {IERC721Metadata-symbol}."
      },
      "tokenURI(uint256)": {
        "details": "See {IERC721Metadata-tokenURI}."
      },
      "transferFrom(address,address,uint256)": {
        "details": "See {IERC721-transferFrom}."
      },
      "transferOwnership(address)": {
        "details": "Transfers ownership of the contract to a new account (`newOwner`). Can only be called by the current owner."
      }
    },
    "version": 1
  },
  "userdoc": {
    "kind": "user",
    "methods": {},
    "version": 1
  }
}